{
	"contracts/DeedMultipayout.sol": {
		"DeedMultipayout": {
			"abi": [
				{
					"inputs": [
						{
							"internalType": "address",
							"name": "_lawyer",
							"type": "address"
						},
						{
							"internalType": "address payable",
							"name": "_beneficiary",
							"type": "address"
						},
						{
							"internalType": "uint256",
							"name": "fromNow",
							"type": "uint256"
						}
					],
					"stateMutability": "payable",
					"type": "constructor"
				},
				{
					"inputs": [],
					"name": "INTERVAL",
					"outputs": [
						{
							"internalType": "uint256",
							"name": "",
							"type": "uint256"
						}
					],
					"stateMutability": "view",
					"type": "function"
				},
				{
					"inputs": [],
					"name": "MAXPAYOUTS",
					"outputs": [
						{
							"internalType": "uint256",
							"name": "",
							"type": "uint256"
						}
					],
					"stateMutability": "view",
					"type": "function"
				},
				{
					"inputs": [],
					"name": "amount",
					"outputs": [
						{
							"internalType": "uint256",
							"name": "",
							"type": "uint256"
						}
					],
					"stateMutability": "view",
					"type": "function"
				},
				{
					"inputs": [],
					"name": "beneficiary",
					"outputs": [
						{
							"internalType": "address payable",
							"name": "",
							"type": "address"
						}
					],
					"stateMutability": "view",
					"type": "function"
				},
				{
					"inputs": [],
					"name": "earliest",
					"outputs": [
						{
							"internalType": "uint256",
							"name": "",
							"type": "uint256"
						}
					],
					"stateMutability": "view",
					"type": "function"
				},
				{
					"inputs": [],
					"name": "lawyer",
					"outputs": [
						{
							"internalType": "address",
							"name": "",
							"type": "address"
						}
					],
					"stateMutability": "view",
					"type": "function"
				},
				{
					"inputs": [],
					"name": "paidPayouts",
					"outputs": [
						{
							"internalType": "uint256",
							"name": "",
							"type": "uint256"
						}
					],
					"stateMutability": "view",
					"type": "function"
				},
				{
					"inputs": [],
					"name": "withdraw",
					"outputs": [],
					"stateMutability": "nonpayable",
					"type": "function"
				}
			],
			"devdoc": {
				"kind": "dev",
				"methods": {},
				"version": 1
			},
			"evm": {
				"assembly": "    /* \"contracts/DeedMultipayout.sol\":58:1661  contract DeedMultipayout {... */\n  mstore(0x40, 0x80)\n    /* \"contracts/DeedMultipayout.sol\":398:710  constructor(... */\n  mload(0x40)\n  sub(codesize, bytecodeSize)\n  dup1\n  bytecodeSize\n  dup4\n  codecopy\n  dup2\n  dup2\n  add\n  0x40\n  mstore\n  dup2\n  add\n  swap1\n  tag_1\n  swap2\n  swap1\n  tag_2\n  jump\t// in\ntag_1:\n    /* \"contracts/DeedMultipayout.sol\":573:580  _lawyer */\n  dup3\n    /* \"contracts/DeedMultipayout.sol\":564:570  lawyer */\n  0x00\n  dup1\n    /* \"contracts/DeedMultipayout.sol\":564:580  lawyer = _lawyer */\n  0x0100\n  exp\n  dup2\n  sload\n  dup2\n  0xffffffffffffffffffffffffffffffffffffffff\n  mul\n  not\n  and\n  swap1\n  dup4\n  0xffffffffffffffffffffffffffffffffffffffff\n  and\n  mul\n  or\n  swap1\n  sstore\n  pop\n    /* \"contracts/DeedMultipayout.sol\":604:616  _beneficiary */\n  dup2\n    /* \"contracts/DeedMultipayout.sol\":590:601  beneficiary */\n  0x01\n  0x00\n    /* \"contracts/DeedMultipayout.sol\":590:616  beneficiary = _beneficiary */\n  0x0100\n  exp\n  dup2\n  sload\n  dup2\n  0xffffffffffffffffffffffffffffffffffffffff\n  mul\n  not\n  and\n  swap1\n  dup4\n  0xffffffffffffffffffffffffffffffffffffffff\n  and\n  mul\n  or\n  swap1\n  sstore\n  pop\n    /* \"contracts/DeedMultipayout.sol\":655:662  fromNow */\n  dup1\n    /* \"contracts/DeedMultipayout.sol\":637:652  block.timestamp */\n  timestamp\n    /* \"contracts/DeedMultipayout.sol\":637:662  block.timestamp + fromNow */\n  tag_5\n  swap2\n  swap1\n  tag_6\n  jump\t// in\ntag_5:\n    /* \"contracts/DeedMultipayout.sol\":626:634  earliest */\n  0x02\n    /* \"contracts/DeedMultipayout.sol\":626:662  earliest = block.timestamp + fromNow */\n  dup2\n  swap1\n  sstore\n  pop\n    /* \"contracts/DeedMultipayout.sol\":314:316  10 */\n  0x0a\n    /* \"contracts/DeedMultipayout.sol\":681:690  msg.value */\n  callvalue\n    /* \"contracts/DeedMultipayout.sol\":681:703  msg.value / MAXPAYOUTS */\n  tag_7\n  swap2\n  swap1\n  tag_8\n  jump\t// in\ntag_7:\n    /* \"contracts/DeedMultipayout.sol\":672:678  amount */\n  0x03\n    /* \"contracts/DeedMultipayout.sol\":672:703  amount = msg.value / MAXPAYOUTS */\n  dup2\n  swap1\n  sstore\n  pop\n    /* \"contracts/DeedMultipayout.sol\":398:710  constructor(... */\n  pop\n  pop\n  pop\n    /* \"contracts/DeedMultipayout.sol\":58:1661  contract DeedMultipayout {... */\n  jump(tag_9)\n    /* \"#utility.yul\":88:205   */\ntag_11:\n    /* \"#utility.yul\":197:198   */\n  0x00\n    /* \"#utility.yul\":194:195   */\n  dup1\n    /* \"#utility.yul\":187:199   */\n  revert\n    /* \"#utility.yul\":334:460   */\ntag_13:\n    /* \"#utility.yul\":371:378   */\n  0x00\n    /* \"#utility.yul\":411:453   */\n  0xffffffffffffffffffffffffffffffffffffffff\n    /* \"#utility.yul\":404:409   */\n  dup3\n    /* \"#utility.yul\":400:454   */\n  and\n    /* \"#utility.yul\":389:454   */\n  swap1\n  pop\n    /* \"#utility.yul\":334:460   */\n  swap2\n  swap1\n  pop\n  jump\t// out\n    /* \"#utility.yul\":466:562   */\ntag_14:\n    /* \"#utility.yul\":503:510   */\n  0x00\n    /* \"#utility.yul\":532:556   */\n  tag_31\n    /* \"#utility.yul\":550:555   */\n  dup3\n    /* \"#utility.yul\":532:556   */\n  tag_13\n  jump\t// in\ntag_31:\n    /* \"#utility.yul\":521:556   */\n  swap1\n  pop\n    /* \"#utility.yul\":466:562   */\n  swap2\n  swap1\n  pop\n  jump\t// out\n    /* \"#utility.yul\":568:690   */\ntag_15:\n    /* \"#utility.yul\":641:665   */\n  tag_33\n    /* \"#utility.yul\":659:664   */\n  dup2\n    /* \"#utility.yul\":641:665   */\n  tag_14\n  jump\t// in\ntag_33:\n    /* \"#utility.yul\":634:639   */\n  dup2\n    /* \"#utility.yul\":631:666   */\n  eq\n    /* \"#utility.yul\":621:684   */\n  tag_34\n  jumpi\n    /* \"#utility.yul\":680:681   */\n  0x00\n    /* \"#utility.yul\":677:678   */\n  dup1\n    /* \"#utility.yul\":670:682   */\n  revert\n    /* \"#utility.yul\":621:684   */\ntag_34:\n    /* \"#utility.yul\":568:690   */\n  pop\n  jump\t// out\n    /* \"#utility.yul\":696:839   */\ntag_16:\n    /* \"#utility.yul\":753:758   */\n  0x00\n    /* \"#utility.yul\":784:790   */\n  dup2\n    /* \"#utility.yul\":778:791   */\n  mload\n    /* \"#utility.yul\":769:791   */\n  swap1\n  pop\n    /* \"#utility.yul\":800:833   */\n  tag_36\n    /* \"#utility.yul\":827:832   */\n  dup2\n    /* \"#utility.yul\":800:833   */\n  tag_15\n  jump\t// in\ntag_36:\n    /* \"#utility.yul\":696:839   */\n  swap3\n  swap2\n  pop\n  pop\n  jump\t// out\n    /* \"#utility.yul\":845:949   */\ntag_17:\n    /* \"#utility.yul\":890:897   */\n  0x00\n    /* \"#utility.yul\":919:943   */\n  tag_38\n    /* \"#utility.yul\":937:942   */\n  dup3\n    /* \"#utility.yul\":919:943   */\n  tag_13\n  jump\t// in\ntag_38:\n    /* \"#utility.yul\":908:943   */\n  swap1\n  pop\n    /* \"#utility.yul\":845:949   */\n  swap2\n  swap1\n  pop\n  jump\t// out\n    /* \"#utility.yul\":955:1093   */\ntag_18:\n    /* \"#utility.yul\":1036:1068   */\n  tag_40\n    /* \"#utility.yul\":1062:1067   */\n  dup2\n    /* \"#utility.yul\":1036:1068   */\n  tag_17\n  jump\t// in\ntag_40:\n    /* \"#utility.yul\":1029:1034   */\n  dup2\n    /* \"#utility.yul\":1026:1069   */\n  eq\n    /* \"#utility.yul\":1016:1087   */\n  tag_41\n  jumpi\n    /* \"#utility.yul\":1083:1084   */\n  0x00\n    /* \"#utility.yul\":1080:1081   */\n  dup1\n    /* \"#utility.yul\":1073:1085   */\n  revert\n    /* \"#utility.yul\":1016:1087   */\ntag_41:\n    /* \"#utility.yul\":955:1093   */\n  pop\n  jump\t// out\n    /* \"#utility.yul\":1099:1258   */\ntag_19:\n    /* \"#utility.yul\":1164:1169   */\n  0x00\n    /* \"#utility.yul\":1195:1201   */\n  dup2\n    /* \"#utility.yul\":1189:1202   */\n  mload\n    /* \"#utility.yul\":1180:1202   */\n  swap1\n  pop\n    /* \"#utility.yul\":1211:1252   */\n  tag_43\n    /* \"#utility.yul\":1246:1251   */\n  dup2\n    /* \"#utility.yul\":1211:1252   */\n  tag_18\n  jump\t// in\ntag_43:\n    /* \"#utility.yul\":1099:1258   */\n  swap3\n  swap2\n  pop\n  pop\n  jump\t// out\n    /* \"#utility.yul\":1264:1341   */\ntag_20:\n    /* \"#utility.yul\":1301:1308   */\n  0x00\n    /* \"#utility.yul\":1330:1335   */\n  dup2\n    /* \"#utility.yul\":1319:1335   */\n  swap1\n  pop\n    /* \"#utility.yul\":1264:1341   */\n  swap2\n  swap1\n  pop\n  jump\t// out\n    /* \"#utility.yul\":1347:1469   */\ntag_21:\n    /* \"#utility.yul\":1420:1444   */\n  tag_46\n    /* \"#utility.yul\":1438:1443   */\n  dup2\n    /* \"#utility.yul\":1420:1444   */\n  tag_20\n  jump\t// in\ntag_46:\n    /* \"#utility.yul\":1413:1418   */\n  dup2\n    /* \"#utility.yul\":1410:1445   */\n  eq\n    /* \"#utility.yul\":1400:1463   */\n  tag_47\n  jumpi\n    /* \"#utility.yul\":1459:1460   */\n  0x00\n    /* \"#utility.yul\":1456:1457   */\n  dup1\n    /* \"#utility.yul\":1449:1461   */\n  revert\n    /* \"#utility.yul\":1400:1463   */\ntag_47:\n    /* \"#utility.yul\":1347:1469   */\n  pop\n  jump\t// out\n    /* \"#utility.yul\":1475:1618   */\ntag_22:\n    /* \"#utility.yul\":1532:1537   */\n  0x00\n    /* \"#utility.yul\":1563:1569   */\n  dup2\n    /* \"#utility.yul\":1557:1570   */\n  mload\n    /* \"#utility.yul\":1548:1570   */\n  swap1\n  pop\n    /* \"#utility.yul\":1579:1612   */\n  tag_49\n    /* \"#utility.yul\":1606:1611   */\n  dup2\n    /* \"#utility.yul\":1579:1612   */\n  tag_21\n  jump\t// in\ntag_49:\n    /* \"#utility.yul\":1475:1618   */\n  swap3\n  swap2\n  pop\n  pop\n  jump\t// out\n    /* \"#utility.yul\":1624:2303   */\ntag_2:\n    /* \"#utility.yul\":1720:1726   */\n  0x00\n    /* \"#utility.yul\":1728:1734   */\n  dup1\n    /* \"#utility.yul\":1736:1742   */\n  0x00\n    /* \"#utility.yul\":1785:1787   */\n  0x60\n    /* \"#utility.yul\":1773:1782   */\n  dup5\n    /* \"#utility.yul\":1764:1771   */\n  dup7\n    /* \"#utility.yul\":1760:1783   */\n  sub\n    /* \"#utility.yul\":1756:1788   */\n  slt\n    /* \"#utility.yul\":1753:1872   */\n  iszero\n  tag_51\n  jumpi\n    /* \"#utility.yul\":1791:1870   */\n  tag_52\n  tag_11\n  jump\t// in\ntag_52:\n    /* \"#utility.yul\":1753:1872   */\ntag_51:\n    /* \"#utility.yul\":1911:1912   */\n  0x00\n    /* \"#utility.yul\":1936:2000   */\n  tag_53\n    /* \"#utility.yul\":1992:1999   */\n  dup7\n    /* \"#utility.yul\":1983:1989   */\n  dup3\n    /* \"#utility.yul\":1972:1981   */\n  dup8\n    /* \"#utility.yul\":1968:1990   */\n  add\n    /* \"#utility.yul\":1936:2000   */\n  tag_16\n  jump\t// in\ntag_53:\n    /* \"#utility.yul\":1926:2000   */\n  swap4\n  pop\n    /* \"#utility.yul\":1882:2010   */\n  pop\n    /* \"#utility.yul\":2049:2051   */\n  0x20\n    /* \"#utility.yul\":2075:2147   */\n  tag_54\n    /* \"#utility.yul\":2139:2146   */\n  dup7\n    /* \"#utility.yul\":2130:2136   */\n  dup3\n    /* \"#utility.yul\":2119:2128   */\n  dup8\n    /* \"#utility.yul\":2115:2137   */\n  add\n    /* \"#utility.yul\":2075:2147   */\n  tag_19\n  jump\t// in\ntag_54:\n    /* \"#utility.yul\":2065:2147   */\n  swap3\n  pop\n    /* \"#utility.yul\":2020:2157   */\n  pop\n    /* \"#utility.yul\":2196:2198   */\n  0x40\n    /* \"#utility.yul\":2222:2286   */\n  tag_55\n    /* \"#utility.yul\":2278:2285   */\n  dup7\n    /* \"#utility.yul\":2269:2275   */\n  dup3\n    /* \"#utility.yul\":2258:2267   */\n  dup8\n    /* \"#utility.yul\":2254:2276   */\n  add\n    /* \"#utility.yul\":2222:2286   */\n  tag_22\n  jump\t// in\ntag_55:\n    /* \"#utility.yul\":2212:2286   */\n  swap2\n  pop\n    /* \"#utility.yul\":2167:2296   */\n  pop\n    /* \"#utility.yul\":1624:2303   */\n  swap3\n  pop\n  swap3\n  pop\n  swap3\n  jump\t// out\n    /* \"#utility.yul\":2309:2489   */\ntag_23:\n    /* \"#utility.yul\":2357:2434   */\n  0x4e487b7100000000000000000000000000000000000000000000000000000000\n    /* \"#utility.yul\":2354:2355   */\n  0x00\n    /* \"#utility.yul\":2347:2435   */\n  mstore\n    /* \"#utility.yul\":2454:2458   */\n  0x11\n    /* \"#utility.yul\":2451:2452   */\n  0x04\n    /* \"#utility.yul\":2444:2459   */\n  mstore\n    /* \"#utility.yul\":2478:2482   */\n  0x24\n    /* \"#utility.yul\":2475:2476   */\n  0x00\n    /* \"#utility.yul\":2468:2483   */\n  revert\n    /* \"#utility.yul\":2495:2686   */\ntag_6:\n    /* \"#utility.yul\":2535:2538   */\n  0x00\n    /* \"#utility.yul\":2554:2574   */\n  tag_58\n    /* \"#utility.yul\":2572:2573   */\n  dup3\n    /* \"#utility.yul\":2554:2574   */\n  tag_20\n  jump\t// in\ntag_58:\n    /* \"#utility.yul\":2549:2574   */\n  swap2\n  pop\n    /* \"#utility.yul\":2588:2608   */\n  tag_59\n    /* \"#utility.yul\":2606:2607   */\n  dup4\n    /* \"#utility.yul\":2588:2608   */\n  tag_20\n  jump\t// in\ntag_59:\n    /* \"#utility.yul\":2583:2608   */\n  swap3\n  pop\n    /* \"#utility.yul\":2631:2632   */\n  dup3\n    /* \"#utility.yul\":2628:2629   */\n  dup3\n    /* \"#utility.yul\":2624:2633   */\n  add\n    /* \"#utility.yul\":2617:2633   */\n  swap1\n  pop\n    /* \"#utility.yul\":2652:2655   */\n  dup1\n    /* \"#utility.yul\":2649:2650   */\n  dup3\n    /* \"#utility.yul\":2646:2656   */\n  gt\n    /* \"#utility.yul\":2643:2679   */\n  iszero\n  tag_60\n  jumpi\n    /* \"#utility.yul\":2659:2677   */\n  tag_61\n  tag_23\n  jump\t// in\ntag_61:\n    /* \"#utility.yul\":2643:2679   */\ntag_60:\n    /* \"#utility.yul\":2495:2686   */\n  swap3\n  swap2\n  pop\n  pop\n  jump\t// out\n    /* \"#utility.yul\":2692:2872   */\ntag_24:\n    /* \"#utility.yul\":2740:2817   */\n  0x4e487b7100000000000000000000000000000000000000000000000000000000\n    /* \"#utility.yul\":2737:2738   */\n  0x00\n    /* \"#utility.yul\":2730:2818   */\n  mstore\n    /* \"#utility.yul\":2837:2841   */\n  0x12\n    /* \"#utility.yul\":2834:2835   */\n  0x04\n    /* \"#utility.yul\":2827:2842   */\n  mstore\n    /* \"#utility.yul\":2861:2865   */\n  0x24\n    /* \"#utility.yul\":2858:2859   */\n  0x00\n    /* \"#utility.yul\":2851:2866   */\n  revert\n    /* \"#utility.yul\":2878:3063   */\ntag_8:\n    /* \"#utility.yul\":2918:2919   */\n  0x00\n    /* \"#utility.yul\":2935:2955   */\n  tag_64\n    /* \"#utility.yul\":2953:2954   */\n  dup3\n    /* \"#utility.yul\":2935:2955   */\n  tag_20\n  jump\t// in\ntag_64:\n    /* \"#utility.yul\":2930:2955   */\n  swap2\n  pop\n    /* \"#utility.yul\":2969:2989   */\n  tag_65\n    /* \"#utility.yul\":2987:2988   */\n  dup4\n    /* \"#utility.yul\":2969:2989   */\n  tag_20\n  jump\t// in\ntag_65:\n    /* \"#utility.yul\":2964:2989   */\n  swap3\n  pop\n    /* \"#utility.yul\":3008:3009   */\n  dup3\n    /* \"#utility.yul\":2998:3033   */\n  tag_66\n  jumpi\n    /* \"#utility.yul\":3013:3031   */\n  tag_67\n  tag_24\n  jump\t// in\ntag_67:\n    /* \"#utility.yul\":2998:3033   */\ntag_66:\n    /* \"#utility.yul\":3055:3056   */\n  dup3\n    /* \"#utility.yul\":3052:3053   */\n  dup3\n    /* \"#utility.yul\":3048:3057   */\n  div\n    /* \"#utility.yul\":3043:3057   */\n  swap1\n  pop\n    /* \"#utility.yul\":2878:3063   */\n  swap3\n  swap2\n  pop\n  pop\n  jump\t// out\n    /* \"contracts/DeedMultipayout.sol\":58:1661  contract DeedMultipayout {... */\ntag_9:\n  dataSize(sub_0)\n  dup1\n  dataOffset(sub_0)\n  0x00\n  codecopy\n  0x00\n  return\nstop\n\nsub_0: assembly {\n        /* \"contracts/DeedMultipayout.sol\":58:1661  contract DeedMultipayout {... */\n      mstore(0x40, 0x80)\n      callvalue\n      dup1\n      iszero\n      tag_1\n      jumpi\n      0x00\n      dup1\n      revert\n    tag_1:\n      pop\n      jumpi(tag_2, lt(calldatasize, 0x04))\n      shr(0xe0, calldataload(0x00))\n      dup1\n      0x5dd65d3b\n      gt\n      tag_11\n      jumpi\n      dup1\n      0x5dd65d3b\n      eq\n      tag_7\n      jumpi\n      dup1\n      0x89facb20\n      eq\n      tag_8\n      jumpi\n      dup1\n      0x8ac377bb\n      eq\n      tag_9\n      jumpi\n      dup1\n      0xaa8c217c\n      eq\n      tag_10\n      jumpi\n      jump(tag_2)\n    tag_11:\n      dup1\n      0x38af3eed\n      eq\n      tag_3\n      jumpi\n      dup1\n      0x3bfb6e31\n      eq\n      tag_4\n      jumpi\n      dup1\n      0x3ccfd60b\n      eq\n      tag_5\n      jumpi\n      dup1\n      0x4a8a7ce3\n      eq\n      tag_6\n      jumpi\n    tag_2:\n      0x00\n      dup1\n      revert\n        /* \"contracts/DeedMultipayout.sol\":116:150  address payable public beneficiary */\n    tag_3:\n      tag_12\n      tag_13\n      jump\t// in\n    tag_12:\n      mload(0x40)\n      tag_14\n      swap2\n      swap1\n      tag_15\n      jump\t// in\n    tag_14:\n      mload(0x40)\n      dup1\n      swap2\n      sub\n      swap1\n      return\n        /* \"contracts/DeedMultipayout.sol\":89:110  address public lawyer */\n    tag_4:\n      tag_16\n      tag_17\n      jump\t// in\n    tag_16:\n      mload(0x40)\n      tag_18\n      swap2\n      swap1\n      tag_19\n      jump\t// in\n    tag_18:\n      mload(0x40)\n      dup1\n      swap2\n      sub\n      swap1\n      return\n        /* \"contracts/DeedMultipayout.sol\":716:1659  function withdraw() public {... */\n    tag_5:\n      tag_20\n      tag_21\n      jump\t// in\n    tag_20:\n      stop\n        /* \"contracts/DeedMultipayout.sol\":365:391  uint256 public paidPayouts */\n    tag_6:\n      tag_22\n      tag_23\n      jump\t// in\n    tag_22:\n      mload(0x40)\n      tag_24\n      swap2\n      swap1\n      tag_25\n      jump\t// in\n    tag_24:\n      mload(0x40)\n      dup1\n      swap2\n      sub\n      swap1\n      return\n        /* \"contracts/DeedMultipayout.sol\":156:179  uint256 public earliest */\n    tag_7:\n      tag_26\n      tag_27\n      jump\t// in\n    tag_26:\n      mload(0x40)\n      tag_28\n      swap2\n      swap1\n      tag_25\n      jump\t// in\n    tag_28:\n      mload(0x40)\n      dup1\n      swap2\n      sub\n      swap1\n      return\n        /* \"contracts/DeedMultipayout.sol\":322:359  uint256 public constant INTERVAL = 10 */\n    tag_8:\n      tag_29\n      tag_30\n      jump\t// in\n    tag_29:\n      mload(0x40)\n      tag_31\n      swap2\n      swap1\n      tag_25\n      jump\t// in\n    tag_31:\n      mload(0x40)\n      dup1\n      swap2\n      sub\n      swap1\n      return\n        /* \"contracts/DeedMultipayout.sol\":277:316  uint256 public constant MAXPAYOUTS = 10 */\n    tag_9:\n      tag_32\n      tag_33\n      jump\t// in\n    tag_32:\n      mload(0x40)\n      tag_34\n      swap2\n      swap1\n      tag_25\n      jump\t// in\n    tag_34:\n      mload(0x40)\n      dup1\n      swap2\n      sub\n      swap1\n      return\n        /* \"contracts/DeedMultipayout.sol\":185:206  uint256 public amount */\n    tag_10:\n      tag_35\n      tag_36\n      jump\t// in\n    tag_35:\n      mload(0x40)\n      tag_37\n      swap2\n      swap1\n      tag_25\n      jump\t// in\n    tag_37:\n      mload(0x40)\n      dup1\n      swap2\n      sub\n      swap1\n      return\n        /* \"contracts/DeedMultipayout.sol\":116:150  address payable public beneficiary */\n    tag_13:\n      0x01\n      0x00\n      swap1\n      sload\n      swap1\n      0x0100\n      exp\n      swap1\n      div\n      0xffffffffffffffffffffffffffffffffffffffff\n      and\n      dup2\n      jump\t// out\n        /* \"contracts/DeedMultipayout.sol\":89:110  address public lawyer */\n    tag_17:\n      0x00\n      dup1\n      sload\n      swap1\n      0x0100\n      exp\n      swap1\n      div\n      0xffffffffffffffffffffffffffffffffffffffff\n      and\n      dup2\n      jump\t// out\n        /* \"contracts/DeedMultipayout.sol\":716:1659  function withdraw() public {... */\n    tag_21:\n        /* \"contracts/DeedMultipayout.sol\":775:786  beneficiary */\n      0x01\n      0x00\n      swap1\n      sload\n      swap1\n      0x0100\n      exp\n      swap1\n      div\n      0xffffffffffffffffffffffffffffffffffffffff\n      and\n        /* \"contracts/DeedMultipayout.sol\":761:786  msg.sender == beneficiary */\n      0xffffffffffffffffffffffffffffffffffffffff\n      and\n        /* \"contracts/DeedMultipayout.sol\":761:771  msg.sender */\n      caller\n        /* \"contracts/DeedMultipayout.sol\":761:786  msg.sender == beneficiary */\n      0xffffffffffffffffffffffffffffffffffffffff\n      and\n      eq\n        /* \"contracts/DeedMultipayout.sol\":753:807  require(msg.sender == beneficiary, \"Beneficiary only\") */\n      tag_39\n      jumpi\n      mload(0x40)\n      0x08c379a000000000000000000000000000000000000000000000000000000000\n      dup2\n      mstore\n      0x04\n      add\n      tag_40\n      swap1\n      tag_41\n      jump\t// in\n    tag_40:\n      mload(0x40)\n      dup1\n      swap2\n      sub\n      swap1\n      revert\n    tag_39:\n        /* \"contracts/DeedMultipayout.sol\":887:895  earliest */\n      sload(0x02)\n        /* \"contracts/DeedMultipayout.sol\":868:883  block.timestamp */\n      timestamp\n        /* \"contracts/DeedMultipayout.sol\":868:895  block.timestamp >= earliest */\n      lt\n      iszero\n        /* \"contracts/DeedMultipayout.sol\":860:921  require(block.timestamp >= earliest, \"Too early to withdraw\") */\n      tag_42\n      jumpi\n      mload(0x40)\n      0x08c379a000000000000000000000000000000000000000000000000000000000\n      dup2\n      mstore\n      0x04\n      add\n      tag_43\n      swap1\n      tag_44\n      jump\t// in\n    tag_43:\n      mload(0x40)\n      dup1\n      swap2\n      sub\n      swap1\n      revert\n    tag_42:\n        /* \"contracts/DeedMultipayout.sol\":314:316  10 */\n      0x0a\n        /* \"contracts/DeedMultipayout.sol\":978:989  paidPayouts */\n      sload(0x04)\n        /* \"contracts/DeedMultipayout.sol\":978:1002  paidPayouts < MAXPAYOUTS */\n      lt\n        /* \"contracts/DeedMultipayout.sol\":970:1022  require(paidPayouts < MAXPAYOUTS, \"No payouts left\") */\n      tag_45\n      jumpi\n      mload(0x40)\n      0x08c379a000000000000000000000000000000000000000000000000000000000\n      dup2\n      mstore\n      0x04\n      add\n      tag_46\n      swap1\n      tag_47\n      jump\t// in\n    tag_46:\n      mload(0x40)\n      dup1\n      swap2\n      sub\n      swap1\n      revert\n    tag_45:\n        /* \"contracts/DeedMultipayout.sol\":1129:1153  uint256 elligiblePayouts */\n      0x00\n        /* \"contracts/DeedMultipayout.sol\":357:359  10 */\n      0x0a\n        /* \"contracts/DeedMultipayout.sol\":1175:1183  earliest */\n      sload(0x02)\n        /* \"contracts/DeedMultipayout.sol\":1157:1172  block.timestamp */\n      timestamp\n        /* \"contracts/DeedMultipayout.sol\":1157:1183  block.timestamp - earliest */\n      tag_48\n      swap2\n      swap1\n      tag_49\n      jump\t// in\n    tag_48:\n        /* \"contracts/DeedMultipayout.sol\":1156:1195  (block.timestamp - earliest) / INTERVAL */\n      tag_50\n      swap2\n      swap1\n      tag_51\n      jump\t// in\n    tag_50:\n        /* \"contracts/DeedMultipayout.sol\":1129:1195  uint256 elligiblePayouts = (block.timestamp - earliest) / INTERVAL */\n      swap1\n      pop\n        /* \"contracts/DeedMultipayout.sol\":1254:1272  uint256 duePayouts */\n      0x00\n        /* \"contracts/DeedMultipayout.sol\":1294:1305  paidPayouts */\n      sload(0x04)\n        /* \"contracts/DeedMultipayout.sol\":1275:1291  elligiblePayouts */\n      dup3\n        /* \"contracts/DeedMultipayout.sol\":1275:1305  elligiblePayouts - paidPayouts */\n      tag_52\n      swap2\n      swap1\n      tag_49\n      jump\t// in\n    tag_52:\n        /* \"contracts/DeedMultipayout.sol\":1254:1305  uint256 duePayouts = elligiblePayouts - paidPayouts */\n      swap1\n      pop\n        /* \"contracts/DeedMultipayout.sol\":314:316  10 */\n      0x0a\n        /* \"contracts/DeedMultipayout.sol\":1399:1410  paidPayouts */\n      sload(0x04)\n        /* \"contracts/DeedMultipayout.sol\":1386:1396  duePayouts */\n      dup3\n        /* \"contracts/DeedMultipayout.sol\":1386:1410  duePayouts + paidPayouts */\n      tag_53\n      swap2\n      swap1\n      tag_54\n      jump\t// in\n    tag_53:\n        /* \"contracts/DeedMultipayout.sol\":1386:1423  duePayouts + paidPayouts > MAXPAYOUTS */\n      gt\n        /* \"contracts/DeedMultipayout.sol\":1386:1487  duePayouts + paidPayouts > MAXPAYOUTS... */\n      tag_55\n      jumpi\n        /* \"contracts/DeedMultipayout.sol\":1477:1487  duePayouts */\n      dup1\n        /* \"contracts/DeedMultipayout.sol\":1386:1487  duePayouts + paidPayouts > MAXPAYOUTS... */\n      jump(tag_56)\n    tag_55:\n        /* \"contracts/DeedMultipayout.sol\":1451:1462  paidPayouts */\n      sload(0x04)\n        /* \"contracts/DeedMultipayout.sol\":314:316  10 */\n      0x0a\n        /* \"contracts/DeedMultipayout.sol\":1438:1462  MAXPAYOUTS - paidPayouts */\n      tag_57\n      swap2\n      swap1\n      tag_49\n      jump\t// in\n    tag_57:\n        /* \"contracts/DeedMultipayout.sol\":1386:1487  duePayouts + paidPayouts > MAXPAYOUTS... */\n    tag_56:\n        /* \"contracts/DeedMultipayout.sol\":1373:1487  duePayouts = duePayouts + paidPayouts > MAXPAYOUTS... */\n      swap1\n      pop\n        /* \"contracts/DeedMultipayout.sol\":1543:1553  duePayouts */\n      dup1\n        /* \"contracts/DeedMultipayout.sol\":1528:1539  paidPayouts */\n      0x04\n      0x00\n        /* \"contracts/DeedMultipayout.sol\":1528:1553  paidPayouts += duePayouts */\n      dup3\n      dup3\n      sload\n      tag_58\n      swap2\n      swap1\n      tag_54\n      jump\t// in\n    tag_58:\n      swap3\n      pop\n      pop\n      dup2\n      swap1\n      sstore\n      pop\n        /* \"contracts/DeedMultipayout.sol\":1611:1622  beneficiary */\n      0x01\n      0x00\n      swap1\n      sload\n      swap1\n      0x0100\n      exp\n      swap1\n      div\n      0xffffffffffffffffffffffffffffffffffffffff\n      and\n        /* \"contracts/DeedMultipayout.sol\":1611:1631  beneficiary.transfer */\n      0xffffffffffffffffffffffffffffffffffffffff\n      and\n        /* \"contracts/DeedMultipayout.sol\":1611:1652  beneficiary.transfer(duePayouts * amount) */\n      0x08fc\n        /* \"contracts/DeedMultipayout.sol\":1645:1651  amount */\n      sload(0x03)\n        /* \"contracts/DeedMultipayout.sol\":1632:1642  duePayouts */\n      dup4\n        /* \"contracts/DeedMultipayout.sol\":1632:1651  duePayouts * amount */\n      tag_59\n      swap2\n      swap1\n      tag_60\n      jump\t// in\n    tag_59:\n        /* \"contracts/DeedMultipayout.sol\":1611:1652  beneficiary.transfer(duePayouts * amount) */\n      swap1\n      dup2\n      iszero\n      mul\n      swap1\n      mload(0x40)\n      0x00\n      mload(0x40)\n      dup1\n      dup4\n      sub\n      dup2\n      dup6\n      dup9\n      dup9\n      call\n      swap4\n      pop\n      pop\n      pop\n      pop\n      iszero\n      dup1\n      iszero\n      tag_62\n      jumpi\n      returndatasize\n      0x00\n      dup1\n      returndatacopy\n      revert(0x00, returndatasize)\n    tag_62:\n      pop\n        /* \"contracts/DeedMultipayout.sol\":743:1659  {... */\n      pop\n      pop\n        /* \"contracts/DeedMultipayout.sol\":716:1659  function withdraw() public {... */\n      jump\t// out\n        /* \"contracts/DeedMultipayout.sol\":365:391  uint256 public paidPayouts */\n    tag_23:\n      sload(0x04)\n      dup2\n      jump\t// out\n        /* \"contracts/DeedMultipayout.sol\":156:179  uint256 public earliest */\n    tag_27:\n      sload(0x02)\n      dup2\n      jump\t// out\n        /* \"contracts/DeedMultipayout.sol\":322:359  uint256 public constant INTERVAL = 10 */\n    tag_30:\n        /* \"contracts/DeedMultipayout.sol\":357:359  10 */\n      0x0a\n        /* \"contracts/DeedMultipayout.sol\":322:359  uint256 public constant INTERVAL = 10 */\n      dup2\n      jump\t// out\n        /* \"contracts/DeedMultipayout.sol\":277:316  uint256 public constant MAXPAYOUTS = 10 */\n    tag_33:\n        /* \"contracts/DeedMultipayout.sol\":314:316  10 */\n      0x0a\n        /* \"contracts/DeedMultipayout.sol\":277:316  uint256 public constant MAXPAYOUTS = 10 */\n      dup2\n      jump\t// out\n        /* \"contracts/DeedMultipayout.sol\":185:206  uint256 public amount */\n    tag_36:\n      sload(0x03)\n      dup2\n      jump\t// out\n        /* \"#utility.yul\":7:133   */\n    tag_63:\n        /* \"#utility.yul\":44:51   */\n      0x00\n        /* \"#utility.yul\":84:126   */\n      0xffffffffffffffffffffffffffffffffffffffff\n        /* \"#utility.yul\":77:82   */\n      dup3\n        /* \"#utility.yul\":73:127   */\n      and\n        /* \"#utility.yul\":62:127   */\n      swap1\n      pop\n        /* \"#utility.yul\":7:133   */\n      swap2\n      swap1\n      pop\n      jump\t// out\n        /* \"#utility.yul\":139:243   */\n    tag_64:\n        /* \"#utility.yul\":184:191   */\n      0x00\n        /* \"#utility.yul\":213:237   */\n      tag_82\n        /* \"#utility.yul\":231:236   */\n      dup3\n        /* \"#utility.yul\":213:237   */\n      tag_63\n      jump\t// in\n    tag_82:\n        /* \"#utility.yul\":202:237   */\n      swap1\n      pop\n        /* \"#utility.yul\":139:243   */\n      swap2\n      swap1\n      pop\n      jump\t// out\n        /* \"#utility.yul\":249:391   */\n    tag_65:\n        /* \"#utility.yul\":352:384   */\n      tag_84\n        /* \"#utility.yul\":378:383   */\n      dup2\n        /* \"#utility.yul\":352:384   */\n      tag_64\n      jump\t// in\n    tag_84:\n        /* \"#utility.yul\":347:350   */\n      dup3\n        /* \"#utility.yul\":340:385   */\n      mstore\n        /* \"#utility.yul\":249:391   */\n      pop\n      pop\n      jump\t// out\n        /* \"#utility.yul\":397:651   */\n    tag_15:\n        /* \"#utility.yul\":506:510   */\n      0x00\n        /* \"#utility.yul\":544:546   */\n      0x20\n        /* \"#utility.yul\":533:542   */\n      dup3\n        /* \"#utility.yul\":529:547   */\n      add\n        /* \"#utility.yul\":521:547   */\n      swap1\n      pop\n        /* \"#utility.yul\":557:644   */\n      tag_86\n        /* \"#utility.yul\":641:642   */\n      0x00\n        /* \"#utility.yul\":630:639   */\n      dup4\n        /* \"#utility.yul\":626:643   */\n      add\n        /* \"#utility.yul\":617:623   */\n      dup5\n        /* \"#utility.yul\":557:644   */\n      tag_65\n      jump\t// in\n    tag_86:\n        /* \"#utility.yul\":397:651   */\n      swap3\n      swap2\n      pop\n      pop\n      jump\t// out\n        /* \"#utility.yul\":657:753   */\n    tag_66:\n        /* \"#utility.yul\":694:701   */\n      0x00\n        /* \"#utility.yul\":723:747   */\n      tag_88\n        /* \"#utility.yul\":741:746   */\n      dup3\n        /* \"#utility.yul\":723:747   */\n      tag_63\n      jump\t// in\n    tag_88:\n        /* \"#utility.yul\":712:747   */\n      swap1\n      pop\n        /* \"#utility.yul\":657:753   */\n      swap2\n      swap1\n      pop\n      jump\t// out\n        /* \"#utility.yul\":759:877   */\n    tag_67:\n        /* \"#utility.yul\":846:870   */\n      tag_90\n        /* \"#utility.yul\":864:869   */\n      dup2\n        /* \"#utility.yul\":846:870   */\n      tag_66\n      jump\t// in\n    tag_90:\n        /* \"#utility.yul\":841:844   */\n      dup3\n        /* \"#utility.yul\":834:871   */\n      mstore\n        /* \"#utility.yul\":759:877   */\n      pop\n      pop\n      jump\t// out\n        /* \"#utility.yul\":883:1105   */\n    tag_19:\n        /* \"#utility.yul\":976:980   */\n      0x00\n        /* \"#utility.yul\":1014:1016   */\n      0x20\n        /* \"#utility.yul\":1003:1012   */\n      dup3\n        /* \"#utility.yul\":999:1017   */\n      add\n        /* \"#utility.yul\":991:1017   */\n      swap1\n      pop\n        /* \"#utility.yul\":1027:1098   */\n      tag_92\n        /* \"#utility.yul\":1095:1096   */\n      0x00\n        /* \"#utility.yul\":1084:1093   */\n      dup4\n        /* \"#utility.yul\":1080:1097   */\n      add\n        /* \"#utility.yul\":1071:1077   */\n      dup5\n        /* \"#utility.yul\":1027:1098   */\n      tag_67\n      jump\t// in\n    tag_92:\n        /* \"#utility.yul\":883:1105   */\n      swap3\n      swap2\n      pop\n      pop\n      jump\t// out\n        /* \"#utility.yul\":1111:1188   */\n    tag_68:\n        /* \"#utility.yul\":1148:1155   */\n      0x00\n        /* \"#utility.yul\":1177:1182   */\n      dup2\n        /* \"#utility.yul\":1166:1182   */\n      swap1\n      pop\n        /* \"#utility.yul\":1111:1188   */\n      swap2\n      swap1\n      pop\n      jump\t// out\n        /* \"#utility.yul\":1194:1312   */\n    tag_69:\n        /* \"#utility.yul\":1281:1305   */\n      tag_95\n        /* \"#utility.yul\":1299:1304   */\n      dup2\n        /* \"#utility.yul\":1281:1305   */\n      tag_68\n      jump\t// in\n    tag_95:\n        /* \"#utility.yul\":1276:1279   */\n      dup3\n        /* \"#utility.yul\":1269:1306   */\n      mstore\n        /* \"#utility.yul\":1194:1312   */\n      pop\n      pop\n      jump\t// out\n        /* \"#utility.yul\":1318:1540   */\n    tag_25:\n        /* \"#utility.yul\":1411:1415   */\n      0x00\n        /* \"#utility.yul\":1449:1451   */\n      0x20\n        /* \"#utility.yul\":1438:1447   */\n      dup3\n        /* \"#utility.yul\":1434:1452   */\n      add\n        /* \"#utility.yul\":1426:1452   */\n      swap1\n      pop\n        /* \"#utility.yul\":1462:1533   */\n      tag_97\n        /* \"#utility.yul\":1530:1531   */\n      0x00\n        /* \"#utility.yul\":1519:1528   */\n      dup4\n        /* \"#utility.yul\":1515:1532   */\n      add\n        /* \"#utility.yul\":1506:1512   */\n      dup5\n        /* \"#utility.yul\":1462:1533   */\n      tag_69\n      jump\t// in\n    tag_97:\n        /* \"#utility.yul\":1318:1540   */\n      swap3\n      swap2\n      pop\n      pop\n      jump\t// out\n        /* \"#utility.yul\":1546:1715   */\n    tag_70:\n        /* \"#utility.yul\":1630:1641   */\n      0x00\n        /* \"#utility.yul\":1664:1670   */\n      dup3\n        /* \"#utility.yul\":1659:1662   */\n      dup3\n        /* \"#utility.yul\":1652:1671   */\n      mstore\n        /* \"#utility.yul\":1704:1708   */\n      0x20\n        /* \"#utility.yul\":1699:1702   */\n      dup3\n        /* \"#utility.yul\":1695:1709   */\n      add\n        /* \"#utility.yul\":1680:1709   */\n      swap1\n      pop\n        /* \"#utility.yul\":1546:1715   */\n      swap3\n      swap2\n      pop\n      pop\n      jump\t// out\n        /* \"#utility.yul\":1721:1887   */\n    tag_71:\n        /* \"#utility.yul\":1861:1879   */\n      0x42656e6566696369617279206f6e6c7900000000000000000000000000000000\n        /* \"#utility.yul\":1857:1858   */\n      0x00\n        /* \"#utility.yul\":1849:1855   */\n      dup3\n        /* \"#utility.yul\":1845:1859   */\n      add\n        /* \"#utility.yul\":1838:1880   */\n      mstore\n        /* \"#utility.yul\":1721:1887   */\n      pop\n      jump\t// out\n        /* \"#utility.yul\":1893:2259   */\n    tag_72:\n        /* \"#utility.yul\":2035:2038   */\n      0x00\n        /* \"#utility.yul\":2056:2123   */\n      tag_101\n        /* \"#utility.yul\":2120:2122   */\n      0x10\n        /* \"#utility.yul\":2115:2118   */\n      dup4\n        /* \"#utility.yul\":2056:2123   */\n      tag_70\n      jump\t// in\n    tag_101:\n        /* \"#utility.yul\":2049:2123   */\n      swap2\n      pop\n        /* \"#utility.yul\":2132:2225   */\n      tag_102\n        /* \"#utility.yul\":2221:2224   */\n      dup3\n        /* \"#utility.yul\":2132:2225   */\n      tag_71\n      jump\t// in\n    tag_102:\n        /* \"#utility.yul\":2250:2252   */\n      0x20\n        /* \"#utility.yul\":2245:2248   */\n      dup3\n        /* \"#utility.yul\":2241:2253   */\n      add\n        /* \"#utility.yul\":2234:2253   */\n      swap1\n      pop\n        /* \"#utility.yul\":1893:2259   */\n      swap2\n      swap1\n      pop\n      jump\t// out\n        /* \"#utility.yul\":2265:2684   */\n    tag_41:\n        /* \"#utility.yul\":2431:2435   */\n      0x00\n        /* \"#utility.yul\":2469:2471   */\n      0x20\n        /* \"#utility.yul\":2458:2467   */\n      dup3\n        /* \"#utility.yul\":2454:2472   */\n      add\n        /* \"#utility.yul\":2446:2472   */\n      swap1\n      pop\n        /* \"#utility.yul\":2518:2527   */\n      dup2\n        /* \"#utility.yul\":2512:2516   */\n      dup2\n        /* \"#utility.yul\":2508:2528   */\n      sub\n        /* \"#utility.yul\":2504:2505   */\n      0x00\n        /* \"#utility.yul\":2493:2502   */\n      dup4\n        /* \"#utility.yul\":2489:2506   */\n      add\n        /* \"#utility.yul\":2482:2529   */\n      mstore\n        /* \"#utility.yul\":2546:2677   */\n      tag_104\n        /* \"#utility.yul\":2672:2676   */\n      dup2\n        /* \"#utility.yul\":2546:2677   */\n      tag_72\n      jump\t// in\n    tag_104:\n        /* \"#utility.yul\":2538:2677   */\n      swap1\n      pop\n        /* \"#utility.yul\":2265:2684   */\n      swap2\n      swap1\n      pop\n      jump\t// out\n        /* \"#utility.yul\":2690:2861   */\n    tag_73:\n        /* \"#utility.yul\":2830:2853   */\n      0x546f6f206561726c7920746f2077697468647261770000000000000000000000\n        /* \"#utility.yul\":2826:2827   */\n      0x00\n        /* \"#utility.yul\":2818:2824   */\n      dup3\n        /* \"#utility.yul\":2814:2828   */\n      add\n        /* \"#utility.yul\":2807:2854   */\n      mstore\n        /* \"#utility.yul\":2690:2861   */\n      pop\n      jump\t// out\n        /* \"#utility.yul\":2867:3233   */\n    tag_74:\n        /* \"#utility.yul\":3009:3012   */\n      0x00\n        /* \"#utility.yul\":3030:3097   */\n      tag_107\n        /* \"#utility.yul\":3094:3096   */\n      0x15\n        /* \"#utility.yul\":3089:3092   */\n      dup4\n        /* \"#utility.yul\":3030:3097   */\n      tag_70\n      jump\t// in\n    tag_107:\n        /* \"#utility.yul\":3023:3097   */\n      swap2\n      pop\n        /* \"#utility.yul\":3106:3199   */\n      tag_108\n        /* \"#utility.yul\":3195:3198   */\n      dup3\n        /* \"#utility.yul\":3106:3199   */\n      tag_73\n      jump\t// in\n    tag_108:\n        /* \"#utility.yul\":3224:3226   */\n      0x20\n        /* \"#utility.yul\":3219:3222   */\n      dup3\n        /* \"#utility.yul\":3215:3227   */\n      add\n        /* \"#utility.yul\":3208:3227   */\n      swap1\n      pop\n        /* \"#utility.yul\":2867:3233   */\n      swap2\n      swap1\n      pop\n      jump\t// out\n        /* \"#utility.yul\":3239:3658   */\n    tag_44:\n        /* \"#utility.yul\":3405:3409   */\n      0x00\n        /* \"#utility.yul\":3443:3445   */\n      0x20\n        /* \"#utility.yul\":3432:3441   */\n      dup3\n        /* \"#utility.yul\":3428:3446   */\n      add\n        /* \"#utility.yul\":3420:3446   */\n      swap1\n      pop\n        /* \"#utility.yul\":3492:3501   */\n      dup2\n        /* \"#utility.yul\":3486:3490   */\n      dup2\n        /* \"#utility.yul\":3482:3502   */\n      sub\n        /* \"#utility.yul\":3478:3479   */\n      0x00\n        /* \"#utility.yul\":3467:3476   */\n      dup4\n        /* \"#utility.yul\":3463:3480   */\n      add\n        /* \"#utility.yul\":3456:3503   */\n      mstore\n        /* \"#utility.yul\":3520:3651   */\n      tag_110\n        /* \"#utility.yul\":3646:3650   */\n      dup2\n        /* \"#utility.yul\":3520:3651   */\n      tag_74\n      jump\t// in\n    tag_110:\n        /* \"#utility.yul\":3512:3651   */\n      swap1\n      pop\n        /* \"#utility.yul\":3239:3658   */\n      swap2\n      swap1\n      pop\n      jump\t// out\n        /* \"#utility.yul\":3664:3829   */\n    tag_75:\n        /* \"#utility.yul\":3804:3821   */\n      0x4e6f207061796f757473206c6566740000000000000000000000000000000000\n        /* \"#utility.yul\":3800:3801   */\n      0x00\n        /* \"#utility.yul\":3792:3798   */\n      dup3\n        /* \"#utility.yul\":3788:3802   */\n      add\n        /* \"#utility.yul\":3781:3822   */\n      mstore\n        /* \"#utility.yul\":3664:3829   */\n      pop\n      jump\t// out\n        /* \"#utility.yul\":3835:4201   */\n    tag_76:\n        /* \"#utility.yul\":3977:3980   */\n      0x00\n        /* \"#utility.yul\":3998:4065   */\n      tag_113\n        /* \"#utility.yul\":4062:4064   */\n      0x0f\n        /* \"#utility.yul\":4057:4060   */\n      dup4\n        /* \"#utility.yul\":3998:4065   */\n      tag_70\n      jump\t// in\n    tag_113:\n        /* \"#utility.yul\":3991:4065   */\n      swap2\n      pop\n        /* \"#utility.yul\":4074:4167   */\n      tag_114\n        /* \"#utility.yul\":4163:4166   */\n      dup3\n        /* \"#utility.yul\":4074:4167   */\n      tag_75\n      jump\t// in\n    tag_114:\n        /* \"#utility.yul\":4192:4194   */\n      0x20\n        /* \"#utility.yul\":4187:4190   */\n      dup3\n        /* \"#utility.yul\":4183:4195   */\n      add\n        /* \"#utility.yul\":4176:4195   */\n      swap1\n      pop\n        /* \"#utility.yul\":3835:4201   */\n      swap2\n      swap1\n      pop\n      jump\t// out\n        /* \"#utility.yul\":4207:4626   */\n    tag_47:\n        /* \"#utility.yul\":4373:4377   */\n      0x00\n        /* \"#utility.yul\":4411:4413   */\n      0x20\n        /* \"#utility.yul\":4400:4409   */\n      dup3\n        /* \"#utility.yul\":4396:4414   */\n      add\n        /* \"#utility.yul\":4388:4414   */\n      swap1\n      pop\n        /* \"#utility.yul\":4460:4469   */\n      dup2\n        /* \"#utility.yul\":4454:4458   */\n      dup2\n        /* \"#utility.yul\":4450:4470   */\n      sub\n        /* \"#utility.yul\":4446:4447   */\n      0x00\n        /* \"#utility.yul\":4435:4444   */\n      dup4\n        /* \"#utility.yul\":4431:4448   */\n      add\n        /* \"#utility.yul\":4424:4471   */\n      mstore\n        /* \"#utility.yul\":4488:4619   */\n      tag_116\n        /* \"#utility.yul\":4614:4618   */\n      dup2\n        /* \"#utility.yul\":4488:4619   */\n      tag_76\n      jump\t// in\n    tag_116:\n        /* \"#utility.yul\":4480:4619   */\n      swap1\n      pop\n        /* \"#utility.yul\":4207:4626   */\n      swap2\n      swap1\n      pop\n      jump\t// out\n        /* \"#utility.yul\":4632:4812   */\n    tag_77:\n        /* \"#utility.yul\":4680:4757   */\n      0x4e487b7100000000000000000000000000000000000000000000000000000000\n        /* \"#utility.yul\":4677:4678   */\n      0x00\n        /* \"#utility.yul\":4670:4758   */\n      mstore\n        /* \"#utility.yul\":4777:4781   */\n      0x11\n        /* \"#utility.yul\":4774:4775   */\n      0x04\n        /* \"#utility.yul\":4767:4782   */\n      mstore\n        /* \"#utility.yul\":4801:4805   */\n      0x24\n        /* \"#utility.yul\":4798:4799   */\n      0x00\n        /* \"#utility.yul\":4791:4806   */\n      revert\n        /* \"#utility.yul\":4818:5012   */\n    tag_49:\n        /* \"#utility.yul\":4858:4862   */\n      0x00\n        /* \"#utility.yul\":4878:4898   */\n      tag_119\n        /* \"#utility.yul\":4896:4897   */\n      dup3\n        /* \"#utility.yul\":4878:4898   */\n      tag_68\n      jump\t// in\n    tag_119:\n        /* \"#utility.yul\":4873:4898   */\n      swap2\n      pop\n        /* \"#utility.yul\":4912:4932   */\n      tag_120\n        /* \"#utility.yul\":4930:4931   */\n      dup4\n        /* \"#utility.yul\":4912:4932   */\n      tag_68\n      jump\t// in\n    tag_120:\n        /* \"#utility.yul\":4907:4932   */\n      swap3\n      pop\n        /* \"#utility.yul\":4956:4957   */\n      dup3\n        /* \"#utility.yul\":4953:4954   */\n      dup3\n        /* \"#utility.yul\":4949:4958   */\n      sub\n        /* \"#utility.yul\":4941:4958   */\n      swap1\n      pop\n        /* \"#utility.yul\":4980:4981   */\n      dup2\n        /* \"#utility.yul\":4974:4978   */\n      dup2\n        /* \"#utility.yul\":4971:4982   */\n      gt\n        /* \"#utility.yul\":4968:5005   */\n      iszero\n      tag_121\n      jumpi\n        /* \"#utility.yul\":4985:5003   */\n      tag_122\n      tag_77\n      jump\t// in\n    tag_122:\n        /* \"#utility.yul\":4968:5005   */\n    tag_121:\n        /* \"#utility.yul\":4818:5012   */\n      swap3\n      swap2\n      pop\n      pop\n      jump\t// out\n        /* \"#utility.yul\":5018:5198   */\n    tag_78:\n        /* \"#utility.yul\":5066:5143   */\n      0x4e487b7100000000000000000000000000000000000000000000000000000000\n        /* \"#utility.yul\":5063:5064   */\n      0x00\n        /* \"#utility.yul\":5056:5144   */\n      mstore\n        /* \"#utility.yul\":5163:5167   */\n      0x12\n        /* \"#utility.yul\":5160:5161   */\n      0x04\n        /* \"#utility.yul\":5153:5168   */\n      mstore\n        /* \"#utility.yul\":5187:5191   */\n      0x24\n        /* \"#utility.yul\":5184:5185   */\n      0x00\n        /* \"#utility.yul\":5177:5192   */\n      revert\n        /* \"#utility.yul\":5204:5389   */\n    tag_51:\n        /* \"#utility.yul\":5244:5245   */\n      0x00\n        /* \"#utility.yul\":5261:5281   */\n      tag_125\n        /* \"#utility.yul\":5279:5280   */\n      dup3\n        /* \"#utility.yul\":5261:5281   */\n      tag_68\n      jump\t// in\n    tag_125:\n        /* \"#utility.yul\":5256:5281   */\n      swap2\n      pop\n        /* \"#utility.yul\":5295:5315   */\n      tag_126\n        /* \"#utility.yul\":5313:5314   */\n      dup4\n        /* \"#utility.yul\":5295:5315   */\n      tag_68\n      jump\t// in\n    tag_126:\n        /* \"#utility.yul\":5290:5315   */\n      swap3\n      pop\n        /* \"#utility.yul\":5334:5335   */\n      dup3\n        /* \"#utility.yul\":5324:5359   */\n      tag_127\n      jumpi\n        /* \"#utility.yul\":5339:5357   */\n      tag_128\n      tag_78\n      jump\t// in\n    tag_128:\n        /* \"#utility.yul\":5324:5359   */\n    tag_127:\n        /* \"#utility.yul\":5381:5382   */\n      dup3\n        /* \"#utility.yul\":5378:5379   */\n      dup3\n        /* \"#utility.yul\":5374:5383   */\n      div\n        /* \"#utility.yul\":5369:5383   */\n      swap1\n      pop\n        /* \"#utility.yul\":5204:5389   */\n      swap3\n      swap2\n      pop\n      pop\n      jump\t// out\n        /* \"#utility.yul\":5395:5586   */\n    tag_54:\n        /* \"#utility.yul\":5435:5438   */\n      0x00\n        /* \"#utility.yul\":5454:5474   */\n      tag_130\n        /* \"#utility.yul\":5472:5473   */\n      dup3\n        /* \"#utility.yul\":5454:5474   */\n      tag_68\n      jump\t// in\n    tag_130:\n        /* \"#utility.yul\":5449:5474   */\n      swap2\n      pop\n        /* \"#utility.yul\":5488:5508   */\n      tag_131\n        /* \"#utility.yul\":5506:5507   */\n      dup4\n        /* \"#utility.yul\":5488:5508   */\n      tag_68\n      jump\t// in\n    tag_131:\n        /* \"#utility.yul\":5483:5508   */\n      swap3\n      pop\n        /* \"#utility.yul\":5531:5532   */\n      dup3\n        /* \"#utility.yul\":5528:5529   */\n      dup3\n        /* \"#utility.yul\":5524:5533   */\n      add\n        /* \"#utility.yul\":5517:5533   */\n      swap1\n      pop\n        /* \"#utility.yul\":5552:5555   */\n      dup1\n        /* \"#utility.yul\":5549:5550   */\n      dup3\n        /* \"#utility.yul\":5546:5556   */\n      gt\n        /* \"#utility.yul\":5543:5579   */\n      iszero\n      tag_132\n      jumpi\n        /* \"#utility.yul\":5559:5577   */\n      tag_133\n      tag_77\n      jump\t// in\n    tag_133:\n        /* \"#utility.yul\":5543:5579   */\n    tag_132:\n        /* \"#utility.yul\":5395:5586   */\n      swap3\n      swap2\n      pop\n      pop\n      jump\t// out\n        /* \"#utility.yul\":5592:6002   */\n    tag_60:\n        /* \"#utility.yul\":5632:5639   */\n      0x00\n        /* \"#utility.yul\":5655:5675   */\n      tag_135\n        /* \"#utility.yul\":5673:5674   */\n      dup3\n        /* \"#utility.yul\":5655:5675   */\n      tag_68\n      jump\t// in\n    tag_135:\n        /* \"#utility.yul\":5650:5675   */\n      swap2\n      pop\n        /* \"#utility.yul\":5689:5709   */\n      tag_136\n        /* \"#utility.yul\":5707:5708   */\n      dup4\n        /* \"#utility.yul\":5689:5709   */\n      tag_68\n      jump\t// in\n    tag_136:\n        /* \"#utility.yul\":5684:5709   */\n      swap3\n      pop\n        /* \"#utility.yul\":5744:5745   */\n      dup3\n        /* \"#utility.yul\":5741:5742   */\n      dup3\n        /* \"#utility.yul\":5737:5746   */\n      mul\n        /* \"#utility.yul\":5766:5796   */\n      tag_137\n        /* \"#utility.yul\":5784:5795   */\n      dup2\n        /* \"#utility.yul\":5766:5796   */\n      tag_68\n      jump\t// in\n    tag_137:\n        /* \"#utility.yul\":5755:5796   */\n      swap2\n      pop\n        /* \"#utility.yul\":5945:5946   */\n      dup3\n        /* \"#utility.yul\":5936:5943   */\n      dup3\n        /* \"#utility.yul\":5932:5947   */\n      div\n        /* \"#utility.yul\":5929:5930   */\n      dup5\n        /* \"#utility.yul\":5926:5948   */\n      eq\n        /* \"#utility.yul\":5906:5907   */\n      dup4\n        /* \"#utility.yul\":5899:5908   */\n      iszero\n        /* \"#utility.yul\":5879:5962   */\n      or\n        /* \"#utility.yul\":5856:5995   */\n      tag_138\n      jumpi\n        /* \"#utility.yul\":5975:5993   */\n      tag_139\n      tag_77\n      jump\t// in\n    tag_139:\n        /* \"#utility.yul\":5856:5995   */\n    tag_138:\n        /* \"#utility.yul\":5640:6002   */\n      pop\n        /* \"#utility.yul\":5592:6002   */\n      swap3\n      swap2\n      pop\n      pop\n      jump\t// out\n\n    auxdata: 0xa2646970667358221220f3642dfb5e42ec2aaf797f17a98f1c9c4e4c50bb03c45e4ddea02dfbf5c69f8064736f6c63430008130033\n}\n",
				"bytecode": {
					"linkReferences": {},
					"object": "608060405260405162000a6c38038062000a6c8339818101604052810190620000299190620001c6565b826000806101000a81548173ffffffffffffffffffffffffffffffffffffffff021916908373ffffffffffffffffffffffffffffffffffffffff16021790555081600160006101000a81548173ffffffffffffffffffffffffffffffffffffffff021916908373ffffffffffffffffffffffffffffffffffffffff1602179055508042620000b8919062000251565b600281905550600a34620000cd9190620002bb565b600381905550505050620002f3565b600080fd5b600073ffffffffffffffffffffffffffffffffffffffff82169050919050565b60006200010e82620000e1565b9050919050565b620001208162000101565b81146200012c57600080fd5b50565b600081519050620001408162000115565b92915050565b60006200015382620000e1565b9050919050565b620001658162000146565b81146200017157600080fd5b50565b60008151905062000185816200015a565b92915050565b6000819050919050565b620001a0816200018b565b8114620001ac57600080fd5b50565b600081519050620001c08162000195565b92915050565b600080600060608486031215620001e257620001e1620000dc565b5b6000620001f2868287016200012f565b9350506020620002058682870162000174565b92505060406200021886828701620001af565b9150509250925092565b7f4e487b7100000000000000000000000000000000000000000000000000000000600052601160045260246000fd5b60006200025e826200018b565b91506200026b836200018b565b925082820190508082111562000286576200028562000222565b5b92915050565b7f4e487b7100000000000000000000000000000000000000000000000000000000600052601260045260246000fd5b6000620002c8826200018b565b9150620002d5836200018b565b925082620002e857620002e76200028c565b5b828204905092915050565b61076980620003036000396000f3fe608060405234801561001057600080fd5b50600436106100885760003560e01c80635dd65d3b1161005b5780635dd65d3b146100f157806389facb201461010f5780638ac377bb1461012d578063aa8c217c1461014b57610088565b806338af3eed1461008d5780633bfb6e31146100ab5780633ccfd60b146100c95780634a8a7ce3146100d3575b600080fd5b610095610169565b6040516100a2919061041a565b60405180910390f35b6100b361018f565b6040516100c09190610456565b60405180910390f35b6100d16101b3565b005b6100db6103bd565b6040516100e8919061048a565b60405180910390f35b6100f96103c3565b604051610106919061048a565b60405180910390f35b6101176103c9565b604051610124919061048a565b60405180910390f35b6101356103ce565b604051610142919061048a565b60405180910390f35b6101536103d3565b604051610160919061048a565b60405180910390f35b600160009054906101000a900473ffffffffffffffffffffffffffffffffffffffff1681565b60008054906101000a900473ffffffffffffffffffffffffffffffffffffffff1681565b600160009054906101000a900473ffffffffffffffffffffffffffffffffffffffff1673ffffffffffffffffffffffffffffffffffffffff163373ffffffffffffffffffffffffffffffffffffffff1614610243576040517f08c379a000000000000000000000000000000000000000000000000000000000815260040161023a90610502565b60405180910390fd5b600254421015610288576040517f08c379a000000000000000000000000000000000000000000000000000000000815260040161027f9061056e565b60405180910390fd5b600a600454106102cd576040517f08c379a00000000000000000000000000000000000000000000000000000000081526004016102c4906105da565b60405180910390fd5b6000600a600254426102df9190610629565b6102e9919061068c565b90506000600454826102fb9190610629565b9050600a6004548261030d91906106bd565b116103185780610328565b600454600a6103279190610629565b5b9050806004600082825461033c91906106bd565b92505081905550600160009054906101000a900473ffffffffffffffffffffffffffffffffffffffff1673ffffffffffffffffffffffffffffffffffffffff166108fc6003548361038d91906106f1565b9081150290604051600060405180830381858888f193505050501580156103b8573d6000803e3d6000fd5b505050565b60045481565b60025481565b600a81565b600a81565b60035481565b600073ffffffffffffffffffffffffffffffffffffffff82169050919050565b6000610404826103d9565b9050919050565b610414816103f9565b82525050565b600060208201905061042f600083018461040b565b92915050565b6000610440826103d9565b9050919050565b61045081610435565b82525050565b600060208201905061046b6000830184610447565b92915050565b6000819050919050565b61048481610471565b82525050565b600060208201905061049f600083018461047b565b92915050565b600082825260208201905092915050565b7f42656e6566696369617279206f6e6c7900000000000000000000000000000000600082015250565b60006104ec6010836104a5565b91506104f7826104b6565b602082019050919050565b6000602082019050818103600083015261051b816104df565b9050919050565b7f546f6f206561726c7920746f2077697468647261770000000000000000000000600082015250565b60006105586015836104a5565b915061056382610522565b602082019050919050565b600060208201905081810360008301526105878161054b565b9050919050565b7f4e6f207061796f757473206c6566740000000000000000000000000000000000600082015250565b60006105c4600f836104a5565b91506105cf8261058e565b602082019050919050565b600060208201905081810360008301526105f3816105b7565b9050919050565b7f4e487b7100000000000000000000000000000000000000000000000000000000600052601160045260246000fd5b600061063482610471565b915061063f83610471565b9250828203905081811115610657576106566105fa565b5b92915050565b7f4e487b7100000000000000000000000000000000000000000000000000000000600052601260045260246000fd5b600061069782610471565b91506106a283610471565b9250826106b2576106b161065d565b5b828204905092915050565b60006106c882610471565b91506106d383610471565b92508282019050808211156106eb576106ea6105fa565b5b92915050565b60006106fc82610471565b915061070783610471565b925082820261071581610471565b9150828204841483151761072c5761072b6105fa565b5b509291505056fea2646970667358221220f3642dfb5e42ec2aaf797f17a98f1c9c4e4c50bb03c45e4ddea02dfbf5c69f8064736f6c63430008130033",
					"opcodes": "PUSH1 0x80 PUSH1 0x40 MSTORE PUSH1 0x40 MLOAD PUSH3 0xA6C CODESIZE SUB DUP1 PUSH3 0xA6C DUP4 CODECOPY DUP2 DUP2 ADD PUSH1 0x40 MSTORE DUP2 ADD SWAP1 PUSH3 0x29 SWAP2 SWAP1 PUSH3 0x1C6 JUMP JUMPDEST DUP3 PUSH1 0x0 DUP1 PUSH2 0x100 EXP DUP2 SLOAD DUP2 PUSH20 0xFFFFFFFFFFFFFFFFFFFFFFFFFFFFFFFFFFFFFFFF MUL NOT AND SWAP1 DUP4 PUSH20 0xFFFFFFFFFFFFFFFFFFFFFFFFFFFFFFFFFFFFFFFF AND MUL OR SWAP1 SSTORE POP DUP2 PUSH1 0x1 PUSH1 0x0 PUSH2 0x100 EXP DUP2 SLOAD DUP2 PUSH20 0xFFFFFFFFFFFFFFFFFFFFFFFFFFFFFFFFFFFFFFFF MUL NOT AND SWAP1 DUP4 PUSH20 0xFFFFFFFFFFFFFFFFFFFFFFFFFFFFFFFFFFFFFFFF AND MUL OR SWAP1 SSTORE POP DUP1 TIMESTAMP PUSH3 0xB8 SWAP2 SWAP1 PUSH3 0x251 JUMP JUMPDEST PUSH1 0x2 DUP2 SWAP1 SSTORE POP PUSH1 0xA CALLVALUE PUSH3 0xCD SWAP2 SWAP1 PUSH3 0x2BB JUMP JUMPDEST PUSH1 0x3 DUP2 SWAP1 SSTORE POP POP POP POP PUSH3 0x2F3 JUMP JUMPDEST PUSH1 0x0 DUP1 REVERT JUMPDEST PUSH1 0x0 PUSH20 0xFFFFFFFFFFFFFFFFFFFFFFFFFFFFFFFFFFFFFFFF DUP3 AND SWAP1 POP SWAP2 SWAP1 POP JUMP JUMPDEST PUSH1 0x0 PUSH3 0x10E DUP3 PUSH3 0xE1 JUMP JUMPDEST SWAP1 POP SWAP2 SWAP1 POP JUMP JUMPDEST PUSH3 0x120 DUP2 PUSH3 0x101 JUMP JUMPDEST DUP2 EQ PUSH3 0x12C JUMPI PUSH1 0x0 DUP1 REVERT JUMPDEST POP JUMP JUMPDEST PUSH1 0x0 DUP2 MLOAD SWAP1 POP PUSH3 0x140 DUP2 PUSH3 0x115 JUMP JUMPDEST SWAP3 SWAP2 POP POP JUMP JUMPDEST PUSH1 0x0 PUSH3 0x153 DUP3 PUSH3 0xE1 JUMP JUMPDEST SWAP1 POP SWAP2 SWAP1 POP JUMP JUMPDEST PUSH3 0x165 DUP2 PUSH3 0x146 JUMP JUMPDEST DUP2 EQ PUSH3 0x171 JUMPI PUSH1 0x0 DUP1 REVERT JUMPDEST POP JUMP JUMPDEST PUSH1 0x0 DUP2 MLOAD SWAP1 POP PUSH3 0x185 DUP2 PUSH3 0x15A JUMP JUMPDEST SWAP3 SWAP2 POP POP JUMP JUMPDEST PUSH1 0x0 DUP2 SWAP1 POP SWAP2 SWAP1 POP JUMP JUMPDEST PUSH3 0x1A0 DUP2 PUSH3 0x18B JUMP JUMPDEST DUP2 EQ PUSH3 0x1AC JUMPI PUSH1 0x0 DUP1 REVERT JUMPDEST POP JUMP JUMPDEST PUSH1 0x0 DUP2 MLOAD SWAP1 POP PUSH3 0x1C0 DUP2 PUSH3 0x195 JUMP JUMPDEST SWAP3 SWAP2 POP POP JUMP JUMPDEST PUSH1 0x0 DUP1 PUSH1 0x0 PUSH1 0x60 DUP5 DUP7 SUB SLT ISZERO PUSH3 0x1E2 JUMPI PUSH3 0x1E1 PUSH3 0xDC JUMP JUMPDEST JUMPDEST PUSH1 0x0 PUSH3 0x1F2 DUP7 DUP3 DUP8 ADD PUSH3 0x12F JUMP JUMPDEST SWAP4 POP POP PUSH1 0x20 PUSH3 0x205 DUP7 DUP3 DUP8 ADD PUSH3 0x174 JUMP JUMPDEST SWAP3 POP POP PUSH1 0x40 PUSH3 0x218 DUP7 DUP3 DUP8 ADD PUSH3 0x1AF JUMP JUMPDEST SWAP2 POP POP SWAP3 POP SWAP3 POP SWAP3 JUMP JUMPDEST PUSH32 0x4E487B7100000000000000000000000000000000000000000000000000000000 PUSH1 0x0 MSTORE PUSH1 0x11 PUSH1 0x4 MSTORE PUSH1 0x24 PUSH1 0x0 REVERT JUMPDEST PUSH1 0x0 PUSH3 0x25E DUP3 PUSH3 0x18B JUMP JUMPDEST SWAP2 POP PUSH3 0x26B DUP4 PUSH3 0x18B JUMP JUMPDEST SWAP3 POP DUP3 DUP3 ADD SWAP1 POP DUP1 DUP3 GT ISZERO PUSH3 0x286 JUMPI PUSH3 0x285 PUSH3 0x222 JUMP JUMPDEST JUMPDEST SWAP3 SWAP2 POP POP JUMP JUMPDEST PUSH32 0x4E487B7100000000000000000000000000000000000000000000000000000000 PUSH1 0x0 MSTORE PUSH1 0x12 PUSH1 0x4 MSTORE PUSH1 0x24 PUSH1 0x0 REVERT JUMPDEST PUSH1 0x0 PUSH3 0x2C8 DUP3 PUSH3 0x18B JUMP JUMPDEST SWAP2 POP PUSH3 0x2D5 DUP4 PUSH3 0x18B JUMP JUMPDEST SWAP3 POP DUP3 PUSH3 0x2E8 JUMPI PUSH3 0x2E7 PUSH3 0x28C JUMP JUMPDEST JUMPDEST DUP3 DUP3 DIV SWAP1 POP SWAP3 SWAP2 POP POP JUMP JUMPDEST PUSH2 0x769 DUP1 PUSH3 0x303 PUSH1 0x0 CODECOPY PUSH1 0x0 RETURN INVALID PUSH1 0x80 PUSH1 0x40 MSTORE CALLVALUE DUP1 ISZERO PUSH2 0x10 JUMPI PUSH1 0x0 DUP1 REVERT JUMPDEST POP PUSH1 0x4 CALLDATASIZE LT PUSH2 0x88 JUMPI PUSH1 0x0 CALLDATALOAD PUSH1 0xE0 SHR DUP1 PUSH4 0x5DD65D3B GT PUSH2 0x5B JUMPI DUP1 PUSH4 0x5DD65D3B EQ PUSH2 0xF1 JUMPI DUP1 PUSH4 0x89FACB20 EQ PUSH2 0x10F JUMPI DUP1 PUSH4 0x8AC377BB EQ PUSH2 0x12D JUMPI DUP1 PUSH4 0xAA8C217C EQ PUSH2 0x14B JUMPI PUSH2 0x88 JUMP JUMPDEST DUP1 PUSH4 0x38AF3EED EQ PUSH2 0x8D JUMPI DUP1 PUSH4 0x3BFB6E31 EQ PUSH2 0xAB JUMPI DUP1 PUSH4 0x3CCFD60B EQ PUSH2 0xC9 JUMPI DUP1 PUSH4 0x4A8A7CE3 EQ PUSH2 0xD3 JUMPI JUMPDEST PUSH1 0x0 DUP1 REVERT JUMPDEST PUSH2 0x95 PUSH2 0x169 JUMP JUMPDEST PUSH1 0x40 MLOAD PUSH2 0xA2 SWAP2 SWAP1 PUSH2 0x41A JUMP JUMPDEST PUSH1 0x40 MLOAD DUP1 SWAP2 SUB SWAP1 RETURN JUMPDEST PUSH2 0xB3 PUSH2 0x18F JUMP JUMPDEST PUSH1 0x40 MLOAD PUSH2 0xC0 SWAP2 SWAP1 PUSH2 0x456 JUMP JUMPDEST PUSH1 0x40 MLOAD DUP1 SWAP2 SUB SWAP1 RETURN JUMPDEST PUSH2 0xD1 PUSH2 0x1B3 JUMP JUMPDEST STOP JUMPDEST PUSH2 0xDB PUSH2 0x3BD JUMP JUMPDEST PUSH1 0x40 MLOAD PUSH2 0xE8 SWAP2 SWAP1 PUSH2 0x48A JUMP JUMPDEST PUSH1 0x40 MLOAD DUP1 SWAP2 SUB SWAP1 RETURN JUMPDEST PUSH2 0xF9 PUSH2 0x3C3 JUMP JUMPDEST PUSH1 0x40 MLOAD PUSH2 0x106 SWAP2 SWAP1 PUSH2 0x48A JUMP JUMPDEST PUSH1 0x40 MLOAD DUP1 SWAP2 SUB SWAP1 RETURN JUMPDEST PUSH2 0x117 PUSH2 0x3C9 JUMP JUMPDEST PUSH1 0x40 MLOAD PUSH2 0x124 SWAP2 SWAP1 PUSH2 0x48A JUMP JUMPDEST PUSH1 0x40 MLOAD DUP1 SWAP2 SUB SWAP1 RETURN JUMPDEST PUSH2 0x135 PUSH2 0x3CE JUMP JUMPDEST PUSH1 0x40 MLOAD PUSH2 0x142 SWAP2 SWAP1 PUSH2 0x48A JUMP JUMPDEST PUSH1 0x40 MLOAD DUP1 SWAP2 SUB SWAP1 RETURN JUMPDEST PUSH2 0x153 PUSH2 0x3D3 JUMP JUMPDEST PUSH1 0x40 MLOAD PUSH2 0x160 SWAP2 SWAP1 PUSH2 0x48A JUMP JUMPDEST PUSH1 0x40 MLOAD DUP1 SWAP2 SUB SWAP1 RETURN JUMPDEST PUSH1 0x1 PUSH1 0x0 SWAP1 SLOAD SWAP1 PUSH2 0x100 EXP SWAP1 DIV PUSH20 0xFFFFFFFFFFFFFFFFFFFFFFFFFFFFFFFFFFFFFFFF AND DUP2 JUMP JUMPDEST PUSH1 0x0 DUP1 SLOAD SWAP1 PUSH2 0x100 EXP SWAP1 DIV PUSH20 0xFFFFFFFFFFFFFFFFFFFFFFFFFFFFFFFFFFFFFFFF AND DUP2 JUMP JUMPDEST PUSH1 0x1 PUSH1 0x0 SWAP1 SLOAD SWAP1 PUSH2 0x100 EXP SWAP1 DIV PUSH20 0xFFFFFFFFFFFFFFFFFFFFFFFFFFFFFFFFFFFFFFFF AND PUSH20 0xFFFFFFFFFFFFFFFFFFFFFFFFFFFFFFFFFFFFFFFF AND CALLER PUSH20 0xFFFFFFFFFFFFFFFFFFFFFFFFFFFFFFFFFFFFFFFF AND EQ PUSH2 0x243 JUMPI PUSH1 0x40 MLOAD PUSH32 0x8C379A000000000000000000000000000000000000000000000000000000000 DUP2 MSTORE PUSH1 0x4 ADD PUSH2 0x23A SWAP1 PUSH2 0x502 JUMP JUMPDEST PUSH1 0x40 MLOAD DUP1 SWAP2 SUB SWAP1 REVERT JUMPDEST PUSH1 0x2 SLOAD TIMESTAMP LT ISZERO PUSH2 0x288 JUMPI PUSH1 0x40 MLOAD PUSH32 0x8C379A000000000000000000000000000000000000000000000000000000000 DUP2 MSTORE PUSH1 0x4 ADD PUSH2 0x27F SWAP1 PUSH2 0x56E JUMP JUMPDEST PUSH1 0x40 MLOAD DUP1 SWAP2 SUB SWAP1 REVERT JUMPDEST PUSH1 0xA PUSH1 0x4 SLOAD LT PUSH2 0x2CD JUMPI PUSH1 0x40 MLOAD PUSH32 0x8C379A000000000000000000000000000000000000000000000000000000000 DUP2 MSTORE PUSH1 0x4 ADD PUSH2 0x2C4 SWAP1 PUSH2 0x5DA JUMP JUMPDEST PUSH1 0x40 MLOAD DUP1 SWAP2 SUB SWAP1 REVERT JUMPDEST PUSH1 0x0 PUSH1 0xA PUSH1 0x2 SLOAD TIMESTAMP PUSH2 0x2DF SWAP2 SWAP1 PUSH2 0x629 JUMP JUMPDEST PUSH2 0x2E9 SWAP2 SWAP1 PUSH2 0x68C JUMP JUMPDEST SWAP1 POP PUSH1 0x0 PUSH1 0x4 SLOAD DUP3 PUSH2 0x2FB SWAP2 SWAP1 PUSH2 0x629 JUMP JUMPDEST SWAP1 POP PUSH1 0xA PUSH1 0x4 SLOAD DUP3 PUSH2 0x30D SWAP2 SWAP1 PUSH2 0x6BD JUMP JUMPDEST GT PUSH2 0x318 JUMPI DUP1 PUSH2 0x328 JUMP JUMPDEST PUSH1 0x4 SLOAD PUSH1 0xA PUSH2 0x327 SWAP2 SWAP1 PUSH2 0x629 JUMP JUMPDEST JUMPDEST SWAP1 POP DUP1 PUSH1 0x4 PUSH1 0x0 DUP3 DUP3 SLOAD PUSH2 0x33C SWAP2 SWAP1 PUSH2 0x6BD JUMP JUMPDEST SWAP3 POP POP DUP2 SWAP1 SSTORE POP PUSH1 0x1 PUSH1 0x0 SWAP1 SLOAD SWAP1 PUSH2 0x100 EXP SWAP1 DIV PUSH20 0xFFFFFFFFFFFFFFFFFFFFFFFFFFFFFFFFFFFFFFFF AND PUSH20 0xFFFFFFFFFFFFFFFFFFFFFFFFFFFFFFFFFFFFFFFF AND PUSH2 0x8FC PUSH1 0x3 SLOAD DUP4 PUSH2 0x38D SWAP2 SWAP1 PUSH2 0x6F1 JUMP JUMPDEST SWAP1 DUP2 ISZERO MUL SWAP1 PUSH1 0x40 MLOAD PUSH1 0x0 PUSH1 0x40 MLOAD DUP1 DUP4 SUB DUP2 DUP6 DUP9 DUP9 CALL SWAP4 POP POP POP POP ISZERO DUP1 ISZERO PUSH2 0x3B8 JUMPI RETURNDATASIZE PUSH1 0x0 DUP1 RETURNDATACOPY RETURNDATASIZE PUSH1 0x0 REVERT JUMPDEST POP POP POP JUMP JUMPDEST PUSH1 0x4 SLOAD DUP2 JUMP JUMPDEST PUSH1 0x2 SLOAD DUP2 JUMP JUMPDEST PUSH1 0xA DUP2 JUMP JUMPDEST PUSH1 0xA DUP2 JUMP JUMPDEST PUSH1 0x3 SLOAD DUP2 JUMP JUMPDEST PUSH1 0x0 PUSH20 0xFFFFFFFFFFFFFFFFFFFFFFFFFFFFFFFFFFFFFFFF DUP3 AND SWAP1 POP SWAP2 SWAP1 POP JUMP JUMPDEST PUSH1 0x0 PUSH2 0x404 DUP3 PUSH2 0x3D9 JUMP JUMPDEST SWAP1 POP SWAP2 SWAP1 POP JUMP JUMPDEST PUSH2 0x414 DUP2 PUSH2 0x3F9 JUMP JUMPDEST DUP3 MSTORE POP POP JUMP JUMPDEST PUSH1 0x0 PUSH1 0x20 DUP3 ADD SWAP1 POP PUSH2 0x42F PUSH1 0x0 DUP4 ADD DUP5 PUSH2 0x40B JUMP JUMPDEST SWAP3 SWAP2 POP POP JUMP JUMPDEST PUSH1 0x0 PUSH2 0x440 DUP3 PUSH2 0x3D9 JUMP JUMPDEST SWAP1 POP SWAP2 SWAP1 POP JUMP JUMPDEST PUSH2 0x450 DUP2 PUSH2 0x435 JUMP JUMPDEST DUP3 MSTORE POP POP JUMP JUMPDEST PUSH1 0x0 PUSH1 0x20 DUP3 ADD SWAP1 POP PUSH2 0x46B PUSH1 0x0 DUP4 ADD DUP5 PUSH2 0x447 JUMP JUMPDEST SWAP3 SWAP2 POP POP JUMP JUMPDEST PUSH1 0x0 DUP2 SWAP1 POP SWAP2 SWAP1 POP JUMP JUMPDEST PUSH2 0x484 DUP2 PUSH2 0x471 JUMP JUMPDEST DUP3 MSTORE POP POP JUMP JUMPDEST PUSH1 0x0 PUSH1 0x20 DUP3 ADD SWAP1 POP PUSH2 0x49F PUSH1 0x0 DUP4 ADD DUP5 PUSH2 0x47B JUMP JUMPDEST SWAP3 SWAP2 POP POP JUMP JUMPDEST PUSH1 0x0 DUP3 DUP3 MSTORE PUSH1 0x20 DUP3 ADD SWAP1 POP SWAP3 SWAP2 POP POP JUMP JUMPDEST PUSH32 0x42656E6566696369617279206F6E6C7900000000000000000000000000000000 PUSH1 0x0 DUP3 ADD MSTORE POP JUMP JUMPDEST PUSH1 0x0 PUSH2 0x4EC PUSH1 0x10 DUP4 PUSH2 0x4A5 JUMP JUMPDEST SWAP2 POP PUSH2 0x4F7 DUP3 PUSH2 0x4B6 JUMP JUMPDEST PUSH1 0x20 DUP3 ADD SWAP1 POP SWAP2 SWAP1 POP JUMP JUMPDEST PUSH1 0x0 PUSH1 0x20 DUP3 ADD SWAP1 POP DUP2 DUP2 SUB PUSH1 0x0 DUP4 ADD MSTORE PUSH2 0x51B DUP2 PUSH2 0x4DF JUMP JUMPDEST SWAP1 POP SWAP2 SWAP1 POP JUMP JUMPDEST PUSH32 0x546F6F206561726C7920746F2077697468647261770000000000000000000000 PUSH1 0x0 DUP3 ADD MSTORE POP JUMP JUMPDEST PUSH1 0x0 PUSH2 0x558 PUSH1 0x15 DUP4 PUSH2 0x4A5 JUMP JUMPDEST SWAP2 POP PUSH2 0x563 DUP3 PUSH2 0x522 JUMP JUMPDEST PUSH1 0x20 DUP3 ADD SWAP1 POP SWAP2 SWAP1 POP JUMP JUMPDEST PUSH1 0x0 PUSH1 0x20 DUP3 ADD SWAP1 POP DUP2 DUP2 SUB PUSH1 0x0 DUP4 ADD MSTORE PUSH2 0x587 DUP2 PUSH2 0x54B JUMP JUMPDEST SWAP1 POP SWAP2 SWAP1 POP JUMP JUMPDEST PUSH32 0x4E6F207061796F757473206C6566740000000000000000000000000000000000 PUSH1 0x0 DUP3 ADD MSTORE POP JUMP JUMPDEST PUSH1 0x0 PUSH2 0x5C4 PUSH1 0xF DUP4 PUSH2 0x4A5 JUMP JUMPDEST SWAP2 POP PUSH2 0x5CF DUP3 PUSH2 0x58E JUMP JUMPDEST PUSH1 0x20 DUP3 ADD SWAP1 POP SWAP2 SWAP1 POP JUMP JUMPDEST PUSH1 0x0 PUSH1 0x20 DUP3 ADD SWAP1 POP DUP2 DUP2 SUB PUSH1 0x0 DUP4 ADD MSTORE PUSH2 0x5F3 DUP2 PUSH2 0x5B7 JUMP JUMPDEST SWAP1 POP SWAP2 SWAP1 POP JUMP JUMPDEST PUSH32 0x4E487B7100000000000000000000000000000000000000000000000000000000 PUSH1 0x0 MSTORE PUSH1 0x11 PUSH1 0x4 MSTORE PUSH1 0x24 PUSH1 0x0 REVERT JUMPDEST PUSH1 0x0 PUSH2 0x634 DUP3 PUSH2 0x471 JUMP JUMPDEST SWAP2 POP PUSH2 0x63F DUP4 PUSH2 0x471 JUMP JUMPDEST SWAP3 POP DUP3 DUP3 SUB SWAP1 POP DUP2 DUP2 GT ISZERO PUSH2 0x657 JUMPI PUSH2 0x656 PUSH2 0x5FA JUMP JUMPDEST JUMPDEST SWAP3 SWAP2 POP POP JUMP JUMPDEST PUSH32 0x4E487B7100000000000000000000000000000000000000000000000000000000 PUSH1 0x0 MSTORE PUSH1 0x12 PUSH1 0x4 MSTORE PUSH1 0x24 PUSH1 0x0 REVERT JUMPDEST PUSH1 0x0 PUSH2 0x697 DUP3 PUSH2 0x471 JUMP JUMPDEST SWAP2 POP PUSH2 0x6A2 DUP4 PUSH2 0x471 JUMP JUMPDEST SWAP3 POP DUP3 PUSH2 0x6B2 JUMPI PUSH2 0x6B1 PUSH2 0x65D JUMP JUMPDEST JUMPDEST DUP3 DUP3 DIV SWAP1 POP SWAP3 SWAP2 POP POP JUMP JUMPDEST PUSH1 0x0 PUSH2 0x6C8 DUP3 PUSH2 0x471 JUMP JUMPDEST SWAP2 POP PUSH2 0x6D3 DUP4 PUSH2 0x471 JUMP JUMPDEST SWAP3 POP DUP3 DUP3 ADD SWAP1 POP DUP1 DUP3 GT ISZERO PUSH2 0x6EB JUMPI PUSH2 0x6EA PUSH2 0x5FA JUMP JUMPDEST JUMPDEST SWAP3 SWAP2 POP POP JUMP JUMPDEST PUSH1 0x0 PUSH2 0x6FC DUP3 PUSH2 0x471 JUMP JUMPDEST SWAP2 POP PUSH2 0x707 DUP4 PUSH2 0x471 JUMP JUMPDEST SWAP3 POP DUP3 DUP3 MUL PUSH2 0x715 DUP2 PUSH2 0x471 JUMP JUMPDEST SWAP2 POP DUP3 DUP3 DIV DUP5 EQ DUP4 ISZERO OR PUSH2 0x72C JUMPI PUSH2 0x72B PUSH2 0x5FA JUMP JUMPDEST JUMPDEST POP SWAP3 SWAP2 POP POP JUMP INVALID LOG2 PUSH5 0x6970667358 0x22 SLT KECCAK256 RETURN PUSH5 0x2DFB5E42EC 0x2A 0xAF PUSH26 0x7F17A98F1C9C4E4C50BB03C45E4DDEA02DFBF5C69F8064736F6C PUSH4 0x43000813 STOP CALLER "
				},
				"gasEstimates": {
					"creation": {
						"codeDepositCost": "379400",
						"executionCost": "infinite",
						"totalCost": "infinite"
					},
					"external": {
						"INTERVAL()": "351",
						"MAXPAYOUTS()": "373",
						"amount()": "2495",
						"beneficiary()": "2515",
						"earliest()": "2429",
						"lawyer()": "2534",
						"paidPayouts()": "2496",
						"withdraw()": "infinite"
					}
				},
				"methodIdentifiers": {
					"INTERVAL()": "89facb20",
					"MAXPAYOUTS()": "8ac377bb",
					"amount()": "aa8c217c",
					"beneficiary()": "38af3eed",
					"earliest()": "5dd65d3b",
					"lawyer()": "3bfb6e31",
					"paidPayouts()": "4a8a7ce3",
					"withdraw()": "3ccfd60b"
				}
			},
			"storageLayout": {
				"storage": [
					{
						"astId": 3,
						"contract": "contracts/DeedMultipayout.sol:DeedMultipayout",
						"label": "lawyer",
						"offset": 0,
						"slot": "0",
						"type": "t_address"
					},
					{
						"astId": 5,
						"contract": "contracts/DeedMultipayout.sol:DeedMultipayout",
						"label": "beneficiary",
						"offset": 0,
						"slot": "1",
						"type": "t_address_payable"
					},
					{
						"astId": 7,
						"contract": "contracts/DeedMultipayout.sol:DeedMultipayout",
						"label": "earliest",
						"offset": 0,
						"slot": "2",
						"type": "t_uint256"
					},
					{
						"astId": 9,
						"contract": "contracts/DeedMultipayout.sol:DeedMultipayout",
						"label": "amount",
						"offset": 0,
						"slot": "3",
						"type": "t_uint256"
					},
					{
						"astId": 17,
						"contract": "contracts/DeedMultipayout.sol:DeedMultipayout",
						"label": "paidPayouts",
						"offset": 0,
						"slot": "4",
						"type": "t_uint256"
					}
				],
				"types": {
					"t_address": {
						"encoding": "inplace",
						"label": "address",
						"numberOfBytes": "20"
					},
					"t_address_payable": {
						"encoding": "inplace",
						"label": "address payable",
						"numberOfBytes": "20"
					},
					"t_uint256": {
						"encoding": "inplace",
						"label": "uint256",
						"numberOfBytes": "32"
					}
				}
			},
			"userdoc": {
				"kind": "user",
				"methods": {},
				"version": 1
			}
		}
	}
}