{
  "contractName": "DeedMultipayout",
  "abi": [
    {
      "inputs": [
        {
          "internalType": "address",
          "name": "_lawyer",
          "type": "address"
        },
        {
          "internalType": "address payable",
          "name": "_beneficiary",
          "type": "address"
        },
        {
          "internalType": "uint256",
          "name": "fromNow",
          "type": "uint256"
        }
      ],
      "stateMutability": "payable",
      "type": "constructor"
    },
    {
      "inputs": [],
      "name": "INTERVAL",
      "outputs": [
        {
          "internalType": "uint256",
          "name": "",
          "type": "uint256"
        }
      ],
      "stateMutability": "view",
      "type": "function"
    },
    {
      "inputs": [],
      "name": "MAXPAYOUTS",
      "outputs": [
        {
          "internalType": "uint256",
          "name": "",
          "type": "uint256"
        }
      ],
      "stateMutability": "view",
      "type": "function"
    },
    {
      "inputs": [],
      "name": "amount",
      "outputs": [
        {
          "internalType": "uint256",
          "name": "",
          "type": "uint256"
        }
      ],
      "stateMutability": "view",
      "type": "function"
    },
    {
      "inputs": [],
      "name": "beneficiary",
      "outputs": [
        {
          "internalType": "address payable",
          "name": "",
          "type": "address"
        }
      ],
      "stateMutability": "view",
      "type": "function"
    },
    {
      "inputs": [],
      "name": "earliest",
      "outputs": [
        {
          "internalType": "uint256",
          "name": "",
          "type": "uint256"
        }
      ],
      "stateMutability": "view",
      "type": "function"
    },
    {
      "inputs": [],
      "name": "lawyer",
      "outputs": [
        {
          "internalType": "address",
          "name": "",
          "type": "address"
        }
      ],
      "stateMutability": "view",
      "type": "function"
    },
    {
      "inputs": [],
      "name": "paidPayouts",
      "outputs": [
        {
          "internalType": "uint256",
          "name": "",
          "type": "uint256"
        }
      ],
      "stateMutability": "view",
      "type": "function"
    },
    {
      "inputs": [],
      "name": "withdraw",
      "outputs": [],
      "stateMutability": "nonpayable",
      "type": "function"
    }
  ],
  "bytecode": "0x608060405260405162000a6838038062000a688339818101604052810190620000299190620001c6565b826000806101000a81548173ffffffffffffffffffffffffffffffffffffffff021916908373ffffffffffffffffffffffffffffffffffffffff16021790555081600160006101000a81548173ffffffffffffffffffffffffffffffffffffffff021916908373ffffffffffffffffffffffffffffffffffffffff1602179055508042620000b8919062000251565b600281905550600434620000cd9190620002bb565b600381905550505050620002f3565b600080fd5b600073ffffffffffffffffffffffffffffffffffffffff82169050919050565b60006200010e82620000e1565b9050919050565b620001208162000101565b81146200012c57600080fd5b50565b600081519050620001408162000115565b92915050565b60006200015382620000e1565b9050919050565b620001658162000146565b81146200017157600080fd5b50565b60008151905062000185816200015a565b92915050565b6000819050919050565b620001a0816200018b565b8114620001ac57600080fd5b50565b600081519050620001c08162000195565b92915050565b600080600060608486031215620001e257620001e1620000dc565b5b6000620001f2868287016200012f565b9350506020620002058682870162000174565b92505060406200021886828701620001af565b9150509250925092565b7f4e487b7100000000000000000000000000000000000000000000000000000000600052601160045260246000fd5b60006200025e826200018b565b91506200026b836200018b565b925082820190508082111562000286576200028562000222565b5b92915050565b7f4e487b7100000000000000000000000000000000000000000000000000000000600052601260045260246000fd5b6000620002c8826200018b565b9150620002d5836200018b565b925082620002e857620002e76200028c565b5b828204905092915050565b61076580620003036000396000f3fe608060405234801561001057600080fd5b50600436106100885760003560e01c80635dd65d3b1161005b5780635dd65d3b146100f157806389facb201461010f5780638ac377bb1461012d578063aa8c217c1461014b57610088565b806338af3eed1461008d5780633bfb6e31146100ab5780633ccfd60b146100c95780634a8a7ce3146100d3575b600080fd5b610095610169565b6040516100a29190610416565b60405180910390f35b6100b361018f565b6040516100c09190610452565b60405180910390f35b6100d16101b3565b005b6100db6103b9565b6040516100e89190610486565b60405180910390f35b6100f96103bf565b6040516101069190610486565b60405180910390f35b6101176103c5565b6040516101249190610486565b60405180910390f35b6101356103ca565b6040516101429190610486565b60405180910390f35b6101536103cf565b6040516101609190610486565b60405180910390f35b600160009054906101000a900473ffffffffffffffffffffffffffffffffffffffff1681565b60008054906101000a900473ffffffffffffffffffffffffffffffffffffffff1681565b60008054906101000a900473ffffffffffffffffffffffffffffffffffffffff1673ffffffffffffffffffffffffffffffffffffffff163373ffffffffffffffffffffffffffffffffffffffff1614610241576040517f08c379a0000000000000000000000000000000000000000000000000000000008152600401610238906104fe565b60405180910390fd5b600254421015610286576040517f08c379a000000000000000000000000000000000000000000000000000000000815260040161027d9061056a565b60405180910390fd5b60048054106102ca576040517f08c379a00000000000000000000000000000000000000000000000000000000081526004016102c1906105d6565b60405180910390fd5b60006001600254426102dc9190610625565b6102e69190610688565b90506000600454826102f89190610625565b9050600480548261030991906106b9565b116103145780610324565b60045460046103239190610625565b5b9050806004600082825461033891906106b9565b92505081905550600160009054906101000a900473ffffffffffffffffffffffffffffffffffffffff1673ffffffffffffffffffffffffffffffffffffffff166108fc6003548361038991906106ed565b9081150290604051600060405180830381858888f193505050501580156103b4573d6000803e3d6000fd5b505050565b60045481565b60025481565b600181565b600481565b60035481565b600073ffffffffffffffffffffffffffffffffffffffff82169050919050565b6000610400826103d5565b9050919050565b610410816103f5565b82525050565b600060208201905061042b6000830184610407565b92915050565b600061043c826103d5565b9050919050565b61044c81610431565b82525050565b60006020820190506104676000830184610443565b92915050565b6000819050919050565b6104808161046d565b82525050565b600060208201905061049b6000830184610477565b92915050565b600082825260208201905092915050565b7f4c6177796572206f6e6c79000000000000000000000000000000000000000000600082015250565b60006104e8600b836104a1565b91506104f3826104b2565b602082019050919050565b60006020820190508181036000830152610517816104db565b9050919050565b7f546f6f206561726c7920746f2077697468647261770000000000000000000000600082015250565b60006105546015836104a1565b915061055f8261051e565b602082019050919050565b6000602082019050818103600083015261058381610547565b9050919050565b7f4e6f207061796f757473206c6566740000000000000000000000000000000000600082015250565b60006105c0600f836104a1565b91506105cb8261058a565b602082019050919050565b600060208201905081810360008301526105ef816105b3565b9050919050565b7f4e487b7100000000000000000000000000000000000000000000000000000000600052601160045260246000fd5b60006106308261046d565b915061063b8361046d565b9250828203905081811115610653576106526105f6565b5b92915050565b7f4e487b7100000000000000000000000000000000000000000000000000000000600052601260045260246000fd5b60006106938261046d565b915061069e8361046d565b9250826106ae576106ad610659565b5b828204905092915050565b60006106c48261046d565b91506106cf8361046d565b92508282019050808211156106e7576106e66105f6565b5b92915050565b60006106f88261046d565b91506107038361046d565b92508282026107118161046d565b91508282048414831517610728576107276105f6565b5b509291505056fea26469706673582212204b4ed5bf8311d3b0d341211ccb2cff1601ca29f145d5e7a12ee0b8489272624264736f6c63430008130033",
  "immutableReferences": {},
  "source": "// SPDX-License-Identifier: MIT\npragma solidity ^0.8.19;\n\ncontract DeedMultipayout {\n    address public lawyer;\n    address payable public beneficiary;\n    uint256 public earliest;\n    uint256 public amount;\n    //gas saving and storing info to code rather than blockchain\n    uint256 public constant MAXPAYOUTS = 4;\n    uint256 public constant INTERVAL = 1;\n    uint256 public paidPayouts;\n    \n    constructor(\n        address _lawyer,\n        address payable _beneficiary,\n        uint256 fromNow\n    ) payable {\n        //argument same as the money sent\n        lawyer = _lawyer;\n        beneficiary = _beneficiary;\n        earliest = block.timestamp + fromNow;\n        amount = msg.value / MAXPAYOUTS;\n    }\n    function withdraw() public {\n        require(msg.sender == lawyer, \"Lawyer only\");\n        //preventing premature withdrawals\n        require(block.timestamp >= earliest, \"Too early to withdraw\");\n        //made payouts vs max payouts.\n        require(paidPayouts < MAXPAYOUTS, \"No payouts left\");\n        //how many payouts should we receive ex. 10 seconds / 10 seconds per interval = 1 payout\n        uint256 elligiblePayouts = (block.timestamp - earliest) / INTERVAL;\n        //example calculation: duepayout 1 = 3-2\n        uint256 duePayouts = elligiblePayouts - paidPayouts;\n        //making sure the transaction matches the amount \n        duePayouts = duePayouts + paidPayouts > MAXPAYOUTS\n            ? MAXPAYOUTS - paidPayouts\n            : duePayouts;\n        //incrementing payouts\n        paidPayouts += duePayouts;\n        //sending everything to the beneficiary\n        beneficiary.transfer(duePayouts * amount);\n    }\n}\n",
  "sourcePath": "/Users/mariaso/Blockchain projects/deed-multipayouts-blockchain/contracts/DeedMultipayout.sol",
  "compiler": {
    "name": "solc",
    "version": "0.8.19+commit.7dd6d404.Emscripten.clang"
  },
  "schemaVersion": "3.4.6",
  "updatedAt": "2024-08-05T23:37:31.550Z",
  "devdoc": {
    "kind": "dev",
    "methods": {},
    "version": 1
  },
  "userdoc": {
    "kind": "user",
    "methods": {},
    "version": 1
  }
}