{
  "contractName": "DeedMultipayout",
  "abi": [
    {
      "inputs": [
        {
          "internalType": "address",
          "name": "_lawyer",
          "type": "address"
        },
        {
          "internalType": "address payable",
          "name": "_beneficiary",
          "type": "address"
        },
        {
          "internalType": "uint256",
          "name": "fromNow",
          "type": "uint256"
        }
      ],
      "stateMutability": "payable",
      "type": "constructor",
      "payable": true
    },
    {
      "inputs": [],
      "name": "INTERVAL",
      "outputs": [
        {
          "internalType": "uint256",
          "name": "",
          "type": "uint256"
        }
      ],
      "stateMutability": "view",
      "type": "function",
      "constant": true
    },
    {
      "inputs": [],
      "name": "MAXPAYOUTS",
      "outputs": [
        {
          "internalType": "uint256",
          "name": "",
          "type": "uint256"
        }
      ],
      "stateMutability": "view",
      "type": "function",
      "constant": true
    },
    {
      "inputs": [],
      "name": "amount",
      "outputs": [
        {
          "internalType": "uint256",
          "name": "",
          "type": "uint256"
        }
      ],
      "stateMutability": "view",
      "type": "function",
      "constant": true
    },
    {
      "inputs": [],
      "name": "beneficiary",
      "outputs": [
        {
          "internalType": "address payable",
          "name": "",
          "type": "address"
        }
      ],
      "stateMutability": "view",
      "type": "function",
      "constant": true
    },
    {
      "inputs": [],
      "name": "earliest",
      "outputs": [
        {
          "internalType": "uint256",
          "name": "",
          "type": "uint256"
        }
      ],
      "stateMutability": "view",
      "type": "function",
      "constant": true
    },
    {
      "inputs": [],
      "name": "lawyer",
      "outputs": [
        {
          "internalType": "address",
          "name": "",
          "type": "address"
        }
      ],
      "stateMutability": "view",
      "type": "function",
      "constant": true
    },
    {
      "inputs": [],
      "name": "paidPayouts",
      "outputs": [
        {
          "internalType": "uint256",
          "name": "",
          "type": "uint256"
        }
      ],
      "stateMutability": "view",
      "type": "function",
      "constant": true
    },
    {
      "inputs": [],
      "name": "withdraw",
      "outputs": [],
      "stateMutability": "nonpayable",
      "type": "function"
    }
  ],
  "bytecode": "0x608060405260405162000a6c38038062000a6c8339818101604052810190620000299190620001c6565b826000806101000a81548173ffffffffffffffffffffffffffffffffffffffff021916908373ffffffffffffffffffffffffffffffffffffffff16021790555081600160006101000a81548173ffffffffffffffffffffffffffffffffffffffff021916908373ffffffffffffffffffffffffffffffffffffffff1602179055508042620000b8919062000251565b600281905550600a34620000cd9190620002bb565b600381905550505050620002f3565b600080fd5b600073ffffffffffffffffffffffffffffffffffffffff82169050919050565b60006200010e82620000e1565b9050919050565b620001208162000101565b81146200012c57600080fd5b50565b600081519050620001408162000115565b92915050565b60006200015382620000e1565b9050919050565b620001658162000146565b81146200017157600080fd5b50565b60008151905062000185816200015a565b92915050565b6000819050919050565b620001a0816200018b565b8114620001ac57600080fd5b50565b600081519050620001c08162000195565b92915050565b600080600060608486031215620001e257620001e1620000dc565b5b6000620001f2868287016200012f565b9350506020620002058682870162000174565b92505060406200021886828701620001af565b9150509250925092565b7f4e487b7100000000000000000000000000000000000000000000000000000000600052601160045260246000fd5b60006200025e826200018b565b91506200026b836200018b565b925082820190508082111562000286576200028562000222565b5b92915050565b7f4e487b7100000000000000000000000000000000000000000000000000000000600052601260045260246000fd5b6000620002c8826200018b565b9150620002d5836200018b565b925082620002e857620002e76200028c565b5b828204905092915050565b61076980620003036000396000f3fe608060405234801561001057600080fd5b50600436106100885760003560e01c80635dd65d3b1161005b5780635dd65d3b146100f157806389facb201461010f5780638ac377bb1461012d578063aa8c217c1461014b57610088565b806338af3eed1461008d5780633bfb6e31146100ab5780633ccfd60b146100c95780634a8a7ce3146100d3575b600080fd5b610095610169565b6040516100a2919061041a565b60405180910390f35b6100b361018f565b6040516100c09190610456565b60405180910390f35b6100d16101b3565b005b6100db6103bd565b6040516100e8919061048a565b60405180910390f35b6100f96103c3565b604051610106919061048a565b60405180910390f35b6101176103c9565b604051610124919061048a565b60405180910390f35b6101356103ce565b604051610142919061048a565b60405180910390f35b6101536103d3565b604051610160919061048a565b60405180910390f35b600160009054906101000a900473ffffffffffffffffffffffffffffffffffffffff1681565b60008054906101000a900473ffffffffffffffffffffffffffffffffffffffff1681565b600160009054906101000a900473ffffffffffffffffffffffffffffffffffffffff1673ffffffffffffffffffffffffffffffffffffffff163373ffffffffffffffffffffffffffffffffffffffff1614610243576040517f08c379a000000000000000000000000000000000000000000000000000000000815260040161023a90610502565b60405180910390fd5b600254421015610288576040517f08c379a000000000000000000000000000000000000000000000000000000000815260040161027f9061056e565b60405180910390fd5b600a600454106102cd576040517f08c379a00000000000000000000000000000000000000000000000000000000081526004016102c4906105da565b60405180910390fd5b6000600a600254426102df9190610629565b6102e9919061068c565b90506000600454826102fb9190610629565b9050600a6004548261030d91906106bd565b116103185780610328565b600454600a6103279190610629565b5b9050806004600082825461033c91906106bd565b92505081905550600160009054906101000a900473ffffffffffffffffffffffffffffffffffffffff1673ffffffffffffffffffffffffffffffffffffffff166108fc6003548361038d91906106f1565b9081150290604051600060405180830381858888f193505050501580156103b8573d6000803e3d6000fd5b505050565b60045481565b60025481565b600a81565b600a81565b60035481565b600073ffffffffffffffffffffffffffffffffffffffff82169050919050565b6000610404826103d9565b9050919050565b610414816103f9565b82525050565b600060208201905061042f600083018461040b565b92915050565b6000610440826103d9565b9050919050565b61045081610435565b82525050565b600060208201905061046b6000830184610447565b92915050565b6000819050919050565b61048481610471565b82525050565b600060208201905061049f600083018461047b565b92915050565b600082825260208201905092915050565b7f42656e6566696369617279206f6e6c7900000000000000000000000000000000600082015250565b60006104ec6010836104a5565b91506104f7826104b6565b602082019050919050565b6000602082019050818103600083015261051b816104df565b9050919050565b7f546f6f206561726c7920746f2077697468647261770000000000000000000000600082015250565b60006105586015836104a5565b915061056382610522565b602082019050919050565b600060208201905081810360008301526105878161054b565b9050919050565b7f4e6f207061796f757473206c6566740000000000000000000000000000000000600082015250565b60006105c4600f836104a5565b91506105cf8261058e565b602082019050919050565b600060208201905081810360008301526105f3816105b7565b9050919050565b7f4e487b7100000000000000000000000000000000000000000000000000000000600052601160045260246000fd5b600061063482610471565b915061063f83610471565b9250828203905081811115610657576106566105fa565b5b92915050565b7f4e487b7100000000000000000000000000000000000000000000000000000000600052601260045260246000fd5b600061069782610471565b91506106a283610471565b9250826106b2576106b161065d565b5b828204905092915050565b60006106c882610471565b91506106d383610471565b92508282019050808211156106eb576106ea6105fa565b5b92915050565b60006106fc82610471565b915061070783610471565b925082820261071581610471565b9150828204841483151761072c5761072b6105fa565b5b509291505056fea2646970667358221220d584a7805ef7457ed55c541880f770b21f2fd371c960e51fe85853d561b418f864736f6c63430008130033",
  "immutableReferences": {},
  "source": "// SPDX-License-Identifier: MIT\npragma solidity ^0.8.19;\n\ncontract DeedMultipayout {\n    address public lawyer;\n    address payable public beneficiary;\n    uint256 public earliest;\n    uint256 public amount;\n    //gas saving and storing info to code rather than blockchain\n    uint256 public constant MAXPAYOUTS = 10;\n    uint256 public constant INTERVAL = 10;\n    uint256 public paidPayouts;\n    \n    constructor(\n        address _lawyer,\n        address payable _beneficiary,\n        uint256 fromNow\n    ) payable {\n        //argument same as the money sent\n        lawyer = _lawyer;\n        beneficiary = _beneficiary;\n        earliest = block.timestamp + fromNow;\n        amount = msg.value / MAXPAYOUTS;\n    }\n    function withdraw() public {\n        require(msg.sender == beneficiary, \"Beneficiary only\");\n        //preventing premature withdrawals\n        require(block.timestamp >= earliest, \"Too early to withdraw\");\n        //made payouts vs max payouts.\n        require(paidPayouts < MAXPAYOUTS, \"No payouts left\");\n        //how many payouts should we receive ex. 10 seconds / 10 seconds per interval = 1 payout\n        uint256 elligiblePayouts = (block.timestamp - earliest) / INTERVAL;\n        //example calculation: duepayout 1 = 3-2\n        uint256 duePayouts = elligiblePayouts - paidPayouts;\n        //making sure the transaction matches the amount \n        duePayouts = duePayouts + paidPayouts > MAXPAYOUTS\n            ? MAXPAYOUTS - paidPayouts\n            : duePayouts;\n        //incrementing payouts\n        paidPayouts += duePayouts;\n        //sending everything to the beneficiary\n        beneficiary.transfer(duePayouts * amount);\n    }\n}\n",
  "sourcePath": "/Users/mariaso/Blockchain projects/deed-multipayouts-blockchain/contracts/DeedMultipayout.sol",
  "compiler": {
    "name": "solc",
    "version": "0.8.19+commit.7dd6d404.Emscripten.clang"
  },
  "schemaVersion": "3.4.6",
  "updatedAt": "2024-07-18T22:07:17.170Z",
  "networkType": "ethereum",
  "devdoc": {
    "kind": "dev",
    "methods": {},
    "version": 1
  },
  "userdoc": {
    "kind": "user",
    "methods": {},
    "version": 1
  }
}